:020000040800F2
:100000000028002019180008D1150008D71500088D
:10001000DD150008E3150008E915000800000000E0
:10002000000000000000000000000000EF150008C4
:10003000FB15000800000000071600081316000852
:1000400061180008611800086118000861180008AC
:10005000611800086118000861180008611800089C
:10006000611800086118000861180008611800088C
:10007000611800086118000861180008611800087C
:10008000611800086118000861180008611800086C
:10009000611800086118000861180008611800085C
:1000A000611800086118000861180008611800084C
:1000B00021160008611800080000000061180008FF
:1000C000611800080000000000000000611800082E
:1000D000000000006118000861180008000000001E
:1000E000611800086118000861180008000000008D
:1000F0000000000000000000000000000000000000
:0C01000000000000000000005FF808F1A3
:10010C0010B5054C237833B9044B13B10448AFF345
:10011C0000800123237010BD30000020000000007F
:10012C00A82E000808B5034B1BB103490348AFF3D5
:10013C00008008BD0000000034000020A82E00083C
:10014C0080B500AF714B1B68013B072B00F2D280CE
:10015C0001A252F823F000BF85010008010300083A
:10016C000103000801030008AF01000803020008A6
:10017C0059020008AB020008642001F027F90220A4
:10018C0001F058FA032001F0B1FA614B1B68614A87
:10019C001360614B1B68614A13605C4B05221A604B
:1001AC00B1E05F4B1B68012B40F0A6805B4B1B68DA
:1001BC00012B12D1554B06221A60564B1B68013B82
:1001CC00544A1360574B1B68544A1360042001F0C7
:1001DC008DFA642001F0FAF88EE04E4B1B68013B5F
:1001EC004C4A13604D4B1B68013B4C4A1360642016
:1001FC0001F0ECF880E04A4B1B68012B7ED1454B9B
:10020C001B68012B14D1414B07221A60424B1B680F
:10021C00404A13603E4B1B68404A1360032001F0B8
:10022C0009FA022001F062FA642001F0CFF865E0CF
:10023C00384B1B68013B374A1360384B1B68013B3A
:10024C00364A1360642001F0C1F857E0344B1B6848
:10025C00012B55D12F4B1B68012B12D12B4B082294
:10026C001A602E4B1B68013B2C4A13602D4B1B68EC
:10027C00284A1360042001F0DDF9642001F0A6F88F
:10028C003EE0244B1B68013B224A1360234B1B6846
:10029C00013B224A1360642001F098F830E0204BB7
:1002AC001B68012B2ED11B4B1B68012B14D1174B38
:1002BC0005221A60164B1B68164A1360164B1B68F6
:1002CC00164A1360022001F0B5F9032001F00EFA72
:1002DC00642001F07BF815E00E4B1B68013B0D4AC6
:1002EC0013600E4B1B68013B0C4A1360642001F039
:1002FC006DF807E000BF06E000BF04E000BF02E0BD
:10030C0000BF00E000BF00BF80BD00BF00000020A8
:10031C000C00002004000020140000200800002025
:10032C006C0000201000002080B500AF164B1B683D
:10033C00012B05D0002B22DD023B022B1FD80FE036
:10034C00124B1B68012B1CD1114B1B68114A1268F4
:10035C001146184600F066FC322001F05FF810E000
:10036C000A4B1B68012B0AD10B4B1B68064A1268FF
:10037C001146184600F056FC322001F04FF800BF31
:10038C0000E000BF00BF80BD1800002084000020EA
:10039C0004000020080000201C00002080B483B062
:1003AC0000AF7860094A7B6852F82330012B06D1E4
:1003BC00064A7B68002142F82310012300E0002349
:1003CC0018460C37BD4680BC704700BF900000201B
:1003DC0090B583B000AF0023FB7187E0FA79FB790D
:1003EC004749895C474AD154FA79FB794649895C7B
:1003FC00434AD154FB79022B1CD0022B25DC002B59
:10040C0002D0012B0BD020E0FC794FF400613F4867
:10041C0001F00CFD03461A463B4B1A5516E0FC79CD
:10042C004FF48051394801F001FD03461A46364B12
:10043C001A550BE0FC794FF40051344801F0F6FCEE
:10044C0003461A46304B1A5500E000BFFB792E4A82
:10045C00D25CFB792A49CB5C9A421CD1FB792A4AA3
:10046C00D25CFB792749CB5C9A4214D1FB79284AA0
:10047C00D35C012B09D1FB79234AD35C002B04D12B
:10048C00FB79244A012142F82310FA79FB791E49A1
:10049C00895C1F4AD154FB791D4AD35C002B14D1C3
:1004AC00FB791D4A32F81330632B09D8FB791A4AB1
:1004BC0032F81320013291B2174A22F8131012E0CD
:1004CC00FB79164A0121D1540DE0FB79114A002128
:1004DC0042F82310FB79104A002122F81310FB7903
:1004EC000E4A0021D154FB790133FB71FB79022BAD
:1004FC007FF674AF00BF00BF0C37BD4690BD00BF88
:10050C00540000205800002050000020000801403A
:10051C004C00002090000020600000205C000020B7
:10052C0080B483B000AF0346FB71FB79022B01D979
:10053C00FF2307E0FB79064AD35C012B0CBF012398
:10054C000023DBB218460C37BD4680BC704700BF99
:10055C005C00002080B582B000AF78607B68002B17
:10056C0023D101220121C24801F077FC0022022193
:10057C00BF4801F072FC00220421BD4801F06DFC63
:10058C0000220821BA4801F068FC00221021B8486A
:10059C0001F063FC00222021B54801F05EFC002232
:1005AC004021B34801F059FC5DE17B68012B23D15C
:1005BC0001220121AE4801F050FC01220221AC487D
:1005CC0001F04BFC01220421A94801F046FC012258
:1005DC000821A74801F041FC01224021A44801F068
:1005EC003CFC00221021A24801F037FC0022202103
:1005FC009F4801F032FC36E17B68022B23D10122AB
:10060C0002219B4801F029FC01221021984801F09D
:10061C0024FC00220121964801F01FFC0022042139
:10062C00934801F01AFC00220821914801F015FCB6
:10063C00002220218E4801F010FC002240218C4821
:10064C0001F00BFC0FE17B68032B23D1012202216B
:10065C00874801F002FC01220421854801F0FDFBD2
:10066C0000220121824801F0F8FB00220821804879
:10067C0001F0F3FB002210217D4801F0EEFB00227B
:10068C0020217B4801F0E9FB00224021784801F051
:10069C00E4FBE8E07B68042B23D10122042174489D
:1006AC0001F0DBFB01220821714801F0D6FB01228D
:1006BC0040216F4801F0D1FB002201216C4801F070
:1006CC00CCFB002202216A4801F0C7FB002210215A
:1006DC00674801F0C2FB00222021654801F0BDFBF8
:1006EC00C1E07B68052B23D101220421604801F075
:1006FC00B4FB012220215E4801F0AFFB0022012156
:10070C005B4801F0AAFB00220221594801F0A5FB2D
:10071C0000220821564801F0A0FB00221021544869
:10072C0001F09BFB00224021514801F096FB9AE01E
:10073C007B68062B23D1012220214D4801F08DFB33
:10074C00002201214A4801F088FB0022022148487E
:10075C0001F083FB00220421454801F07EFB0022BE
:10076C000821434801F079FB00221021404801F098
:10077C0074FB002240213E4801F06FFB73E07B6864
:10078C00072B23D101220121394801F066FB0122FC
:10079C000221374801F061FB01220421344801F0A9
:1007AC005CFB01220821324801F057FB002210218A
:1007BC002F4801F052FB002220212D4801F04DFB67
:1007CC00002240212A4801F048FB4CE07B68082BB2
:1007DC0023D100220121264801F03FFB00220221F7
:1007EC00234801F03AFB00220421214801F035FB9B
:1007FC00002208211E4801F030FB002210211C4869
:10080C0001F02BFB00222021194801F026FB0022CD
:10081C004021174801F021FB25E07B68092B22D1F0
:10082C0001220421124801F018FB0022012110487A
:10083C0001F013FB002202210D4801F00EFB0022F7
:10084C0008210B4801F009FB00221021084801F097
:10085C0004FB00222021064801F0FFFA002240216F
:10086C00034801F0FAFA00BF0837BD4680BD00BF4F
:10087C00000C014080B582B000AF78607B68002B23
:10088C002AD101224FF40071CB4801F0E6FA002284
:10089C004FF48061C84801F0E0FA00224FF4006187
:1008AC00C54801F0DAFA00224FF48051C24801F039
:1008BC00D4FA00224FF40051BF4801F0CEFA0022C6
:1008CC004FF48041BC4801F0C8FA00224FF40041BB
:1008DC00B94801F0C2FA9EE17B68012B2AD10122B2
:1008EC004FF40071B44801F0B8FA01224FF4806162
:1008FC00B14801F0B2FA01224FF40061AE4801F0A8
:10090C00ACFA01224FF48051AB4801F0A6FA012257
:10091C004FF40041A84801F0A0FA00224FF4005116
:10092C00A54801F09AFA00224FF48041A24801F048
:10093C0094FA70E17B68022B2AD101224FF480617A
:10094C009D4801F08AFA01224FF400519A4801F0B7
:10095C0084FA00224FF40071974801F07EFA0022CD
:10096C004FF40061944801F078FA00224FF4805162
:10097C00914801F072FA00224FF480418E4801F048
:10098C006CFA00224FF400418B4801F066FA42E108
:10099C007B68032B2AD101224FF48061864801F039
:1009AC005CFA01224FF40061834801F056FA0022F0
:1009BC004FF40071804801F050FA00224FF480513E
:1009CC007D4801F04AFA00224FF400517A4801F0B8
:1009DC0044FA00224FF48041774801F03EFA00229D
:1009EC004FF40041744801F038FA14E17B68042B91
:1009FC002AD101224FF400616F4801F02EFA012236
:100A0C004FF480516C4801F028FA01224FF4004158
:100A1C00694801F022FA00224FF40071664801F097
:100A2C001CFA00224FF48061634801F016FA002290
:100A3C004FF40051604801F010FA00224FF480414D
:100A4C005D4801F00AFAE6E07B68052B2AD1012209
:100A5C004FF40061584801F000FA01224FF4804134
:100A6C00554801F0FAF900224FF40071524801F098
:100A7C00F4F900224FF480614F4801F0EEF90022A6
:100A8C004FF480514C4801F0E8F900224FF400512A
:100A9C00494801F0E2F900224FF40041464801F0C8
:100AAC00DCF9B8E07B68062B2AD101224FF4804197
:100ABC00414801F0D2F900224FF400713E4801F098
:100ACC00CCF900224FF480613B4801F0C6F90022BA
:100ADC004FF40061384801F0C0F900224FF4805106
:100AEC00354801F0BAF900224FF40051324801F0B8
:100AFC00B4F900224FF400412F4801F0AEF98AE01E
:100B0C007B68072B2AD101224FF400712A4801F08F
:100B1C00A4F901224FF48061274801F09EF90122CB
:100B2C004FF40061244801F098F901224FF48051F0
:100B3C00214801F092F900224FF400511E4801F0B7
:100B4C008CF900224FF480411B4801F086F90022F9
:100B5C004FF40041184801F080F95CE07B68082BE9
:100B6C002CD100224FF40071134801F076F90022C9
:100B7C004FF48061104801F070F900224FF40061CD
:100B8C000D4801F06AF900224FF480510A4801F037
:100B9C0064F900224FF40051074801F05EF900227D
:100BAC004FF48041044801F058F900224FF4004101
:100BBC00014801F052F92EE0000C01407B68092B32
:100BCC0029D101224FF40061154801F046F90022A9
:100BDC004FF40071124801F040F900224FF480618B
:100BEC000F4801F03AF900224FF480510C4801F003
:100BFC0034F900224FF40051094801F02EF900227B
:100C0C004FF48041064801F028F900224FF40041CE
:100C1C00034801F022F900BF0837BD4680BD00BF74
:100C2C00000C014080B586B000AF786039607B68FD
:100C3C002E4A82FB03129210DB17D31A7B617A685F
:100C4C002A4B83FB02139910D317C91A0B469B002E
:100C5C000B445B00D31A3B613B68244A82FB0312B2
:100C6C009210DB17D31AFB603A68204B83FB0213FC
:100C7C009910D317C91A0B469B000B445B00D31A6F
:100C8C00BB601B4B1B68012B02D0022B15D029E03B
:100C9C0001228021174801F0E0F800224FF4807106
:100CAC00144801F0DAF83869FFF754FCB868FFF71C
:100CBC00E1FD0F4B02221A6014E0002280210D4846
:100CCC0001F0CBF801224FF480710A4801F0C5F80D
:100CDC007869FFF73FFCF868FFF7CCFD044B012265
:100CEC001A6000BF00BF1837BD4680BD67666666D8
:100CFC00200000200008014080B500AF00F0ACFDE2
:100D0C0000F016F800F09CF800F04EF8064801F0E0
:100D1C0001FD064B01221A60322000F07FFB00F02F
:100D2C0005F9FFF701FBFAE79C000020000000200A
:100D3C0080B590B000AF07F11803282200211846A7
:100D4C0002F0A4F83B1D00221A605A609A60DA6027
:100D5C001A610223BB610123BB621023FB620023D7
:100D6C007B6307F11803184601F0A8F80346002B23
:100D7C0001D000F0D5F80F237B600023BB6000236B
:100D8C00FB6000233B6100237B613B1D0021184667
:100D9C0001F014FB0346002B01D000F0C1F800BF9A
:100DAC004037BD4680BD000080B586B000AF07F16E
:100DBC00080300221A605A609A60DA603B460022EF
:100DCC001A605A601D4B4FF080421A601B4B41F663
:100DDC003F725A60194B00229A60184B0A22DA6053
:100DEC00164B00221A61154B00229A61134801F030
:100DFC0041FC0346002B01D000F092F84FF48053D5
:100E0C00BB6007F1080319460C4801F0D7FD0346F7
:100E1C00002B01D000F084F800233B6000237B60A2
:100E2C003B461946054801F0A3FF0346002B01D0B1
:100E3C0000F076F800BF1837BD4680BD9C0000203E
:100E4C0080B586B000AF07F1080300221A605A6023
:100E5C009A60DA60294B9B69284A43F0040393613A
:100E6C00264B9B6903F004037B607B68234B9B69D7
:100E7C00224A43F008039361204B9B6903F008035B
:100E8C003B603B68002240F2FE711D4800F0E5FF1C
:100E9C0000224FF67F611B4800F0DFFF40F2FE732B
:100EAC00BB600123FB6000233B6102237B6107F1E4
:100EBC0008031946124800F03FFE4FF67F63BB60F3
:100ECC000123FB6000233B6102237B6107F10803D4
:100EDC0019460C4800F030FE4FF46053BB60002301
:100EEC00FB6001233B6107F108031946044800F03D
:100EFC0023FE00BF1837BD4680BD00BF0010024066
:100F0C0000080140000C014080B582B000AF786051
:100F1C0000F098FAFFF75CFA00BF0837BD4680BDB9
:100F2C0080B400AF72B600BFFEE7000080B500AF22
:100F3C00AF4B1B68013B032B00F22D8201A252F830
:100F4C0023F000BF610F0008D30F00083311000815
:100F5C0087120008FFF7F4F80020FFF7E1FA0346C8
:100F6C00002B15D0A34B1B68012B40F01682A24B13
:100F7C001B68A24A1360022000F05CFB022000F008
:100F8C00B5FB9B4B02221A60642000F01FFA04E2AE
:100F9C000020FFF703FA0346002B00F0FE81944B70
:100FAC0002221A60944B1B68944A1360022000F0D2
:100FBC0041FB022000F09AFB322000F007FA1920C6
:100FCC0000F018FAE9E10020FFF7AAFA0346002B1B
:100FDC0014D0884B1B68012B30D1854B03221A602F
:100FEC00874B1B68854A1360042000F023FB042008
:100FFC0000F07CFB642000F0E9F91FE07D4B1B68DE
:10100C00012B05D1022000F0CDFB322000F0DEF9DF
:10101C000020FFF7C3F90346002B0FD0744B0322BB
:10102C001A60774B1B68754A1360042000F002FBB2
:10103C00042000F05BFB322000F0C8F90120FFF720
:10104C006FFA0346002B14D06E4B1B68012B23D177
:10105C006A4B1B68632B03DD684B01221A6004E0AA
:10106C00664B1B680133654A1360192000F0C2F906
:10107C0012E00120FFF792F90346002B0CD05F4BD6
:10108C001B68632B03DD5D4B01221A6004E05B4B94
:10109C001B680133594A13600220FFF77FF903469E
:1010AC00002B00F07C81554B1B68534A1360564B48
:1010BC001A68534B1B681A444F4B1B689A4207DA49
:1010CC004D4B1A684E4B1B68D31A4F4A136023E0E2
:1010DC004D4B1A684A4B1B681A44474B1B689A4283
:1010EC001ADD454B1B68DA0F13445B101A46464B4E
:1010FC001A60414B1B68DA0F13445B101A46404BC5
:10110C001A603D4B1B6803F00103002B04D03E4BCF
:10111C001B6801333C4A1360354B01221A603B4B70
:10112C0001221A603BE10020FFF7FAF90346002B7D
:10113C0014D0304B1B68012B30D12D4B04221A607C
:10114C00314B1B682D4A1360032000F073FA032007
:10115C0000F0CCFA642000F039F91FE0254B1B6835
:10116C00012B05D1042000F01DFB322000F02EF9DC
:10117C000020FFF713F90346002B0FD01C4B042261
:10118C001A60214B1B681D4A1360032000F052FAB1
:10119C00032000F0ABFA322000F018F90120FFF721
:1011AC00BFF90346002B14D0164B1B68012B34D10E
:1011BC00124B1B68632B03DD104B01221A6004E0F9
:1011CC000E4B1B6801330D4A1360192000F012F905
:1011DC0023E00120FFF7E2F80346002B1DD0074B5C
:1011EC001B68632B14DD054B01221A6015E000BF50
:1011FC00180000206C0000200C0000201C000020B7
:10120C00100000207C0000201400002000000020B2
:10121C00664B1B680133654A13600220FFF7BEF86A
:10122C000346002B00F0BD80604B1B68604A1360C6
:10123C00604B1A685E4B1B681A445F4B1B689A42E2
:10124C0014D05C4B1A685A4B1B6813445A4A1360EF
:10125C00594B1B68632B09DD574B63221A60564BA5
:10126C001A68534B1B68D31A524A1360534B012212
:10127C001A60534B01221A6093E00020FFF750F9DB
:10128C000346002B14D04F4B1B68012B26D14B4B24
:10129C0002221A60484B1B68444A1360022000F07B
:1012AC00C9F9022000F022FA642000F08FF815E052
:1012BC00444B1B68012B05D1032000F073FA32203C
:1012CC0000F084F80020FFF769F80346002B05D0E6
:1012DC003A4B01221A603A4B01221A600120FFF7A7
:1012EC001FF90346002B14D0374B1B68012B23D15D
:1012FC002E4B1B68632B03DD2C4B01221A6004E080
:10130C002A4B1B680133294A1360192000F072F82C
:10131C0012E00120FFF742F80346002B0CD0234BC0
:10132C001B68632B03DD214B01221A6004E01F4B69
:10133C001B6801331D4A13600220FFF72FF8034688
:10134C00002B30D0194B1B681A4A1360194B1A68C2
:10135C00174B1B681A44184B1B689A4214D0154B38
:10136C001A68134B1B681344134A1360124B1B6807
:10137C00632B09DD104B63221A600F4B1A680D4B5F
:10138C001B68D31A0A4A13600C4B01221A600C4BCF
:10139C0001221A6007E000BF06E000BF04E000BFB6
:1013AC0002E000BF00E000BF00BF80BD1C000020B9
:1013BC0010000020140000200C0000201800002059
:1013CC00000000206C0000207C00002080B483B062
:1013DC0000AF7860054A7B681360054B00221A60E9
:1013EC0000BF0C37BD4680BC704700BF68000020B2
:1013FC006C00002080B483B000AF7860054A7B6835
:10140C001360054B00221A6000BF0C37BD4680BC30
:10141C00704700BF780000207C00002080B483B0AF
:10142C0000AF7860054A7B681360054B00221A6098
:10143C0000BF0C37BD4680BC704700BF8000002049
:10144C008400002080B400AF294B1B68002B0BDDFF
:10145C00274B1B68013B264A1360254B1B68002B4E
:10146C0002DC244B01221A60234B1B68002B0BDD82
:10147C00214B1B68013B204A13601F4B1B68002B40
:10148C0002DC1E4B01221A601D4B1B68002B0BDD6E
:10149C001B4B1B68013B1A4A1360194B1B68002B32
:1014AC0002DC184B01221A60174B1B68002B0BDD5A
:1014BC00154B1B68013B144A1360134B1B68002B24
:1014CC0002DC124B01221A60114B1B68002B0BDD46
:1014DC000F4B1B68013B0E4A13600D4B1B68002B16
:1014EC0002DC0C4B01221A6000BFBD4680BC704769
:1014FC00680000206C0000207000002074000020A8
:10150C00780000207C000020800000208400002057
:10151C00880000208C00002080B485B000AF154BF3
:10152C009B69144A43F001039361124B9B6903F0CE
:10153C000103BB60BB680F4BDB690E4A43F0805361
:10154C00D3610C4BDB6903F080537B607B680A4BE7
:10155C005B68FB60FB6823F0E063FB60FB6843F0B7
:10156C008063FB60044AFB68536000BF1437BD46C0
:10157C0080BC7047001002400000014080B584B070
:10158C0000AF78607B681B68B3F1804F13D10C4BB4
:10159C00DB690B4A43F00103D361094BDB6903F0B0
:1015AC000103FB60FB68002200211C2000F08DFA77
:1015BC001C2000F0A6FA00BF1037BD4680BD00BF4E
:1015CC000010024080B400AFFEE780B400AFFEE72D
:1015DC0080B400AFFEE780B400AFFEE780B400AF8C
:1015EC00FEE780B400AF00BFBD4680BC704780B43E
:1015FC0000AF00BFBD4680BC704780B400AF00BFD9
:10160C00BD4680BC704780B500AF00F06BF900BFE1
:10161C0080BD000080B500AF024801F0C7F800BFE4
:10162C0080BD00BF9C00002080B400AF00BFBD4651
:10163C0080BC704780B582B000AF78607B68013B9E
:10164C00032B4BD801A252F823F000BF69160008F7
:10165C0089160008C9160008A916000801220221E3
:10166C00214800F0FAFB012204211F4800F0F5FB91
:10167C00012208211C4800F0F0FB30E0002202217E
:10168C00194800F0EAFB01220421174800F0E5FBA1
:10169C0001220821144800F0E0FB20E00122022185
:1016AC00114800F0DAFB002204210F4800F0D5FBB2
:1016BC00012208210C4800F0D0FB10E0012202218D
:1016CC00094800F0CAFB01220421074800F0C5FBC1
:1016DC0000220821044800F0C0FB00E000BF00BF5E
:1016EC000837BD4680BD00BF0008014080B582B000
:1016FC0000AF78607B68013B032B4BD801A252F8FA
:10170C0023F000BF211700084117000881170008BB
:10171C006117000801221021214800F09EFB0122D4
:10172C0020211F4800F099FB012240211C4800F0A9
:10173C0094FB30E000221021194800F08EFB0122AE
:10174C002021174800F089FB01224021144800F0A9
:10175C0084FB20E001221021114800F07EFB0022C6
:10176C0020210F4800F079FB012240210C4800F0A9
:10177C0074FB10E001221021094800F06EFB0122DD
:10178C002021074800F069FB00224021044800F0AA
:10179C0064FB00E000BF00BF0837BD4680BD00BF42
:1017AC000008014080B582B000AF78607B68042BE4
:1017BC001BD07B68042B21DC7B68022B03D07B685D
:1017CC00032B09D01AE002210F4800F05EFB102118
:1017DC000D4800F05AFB12E008210B4800F055FBB5
:1017EC004021094800F051FB09E00421064800F0B3
:1017FC004CFB2021044800F048FB00E000BF00BF78
:10180C000837BD4680BD00BF00080140FFF70CFF44
:10181C000B480C490C4A002302E0D458C450043342
:10182C00C4188C42F9D3094A094C002301E0136017
:10183C000432A242FBD301F005FBFFF75DFA7047BF
:10184C000000002030000020EC2E000830000020AA
:10185C00E8000020FEE7000080B500AF084B1B68D5
:10186C00074A43F010031360032000F023F90F2004
:10187C0000F008F8FFF750FE0023184680BD00BFAB
:10188C000020024080B582B000AF7860124B1A681D
:10189C00124B1B7819464FF47A73B3FBF1F3B2FB7E
:1018AC00F3F3184600F03BF90346002B01D001235B
:1018BC000EE07B680F2B0AD8002279684FF0FF30BE
:1018CC0000F003F9064A7B681360002300E0012353
:1018DC0018460837BD4680BD240000202C0000208F
:1018EC002800002080B400AF054B1B781A46054B2E
:1018FC001B681344034A136000BFBD4680BC70478D
:10190C002C000020E400002080B400AF024B1B68C8
:10191C001846BD4680BC7047E400002080B485B0FA
:10192C0000AF78607B6803F00703FB600C4BDB684F
:10193C00BB60BA684FF6FF031340BB60FB681A022A
:10194C00BB68134343F0BF6343F40033BB60044AEA
:10195C00BB68D36000BF1437BD4680BC704700BF66
:10196C0000ED00E080B400AF044BDB681B0A03F011
:10197C0007031846BD4680BC704700BF00ED00E071
:10198C0080B483B000AF0346FB7197F90730002B8E
:10199C000BDBFB7903F01F02064997F907305B0953
:1019AC00012000FA02F241F8232000BF0C37BD469B
:1019BC0080BC704700E100E080B483B000AF034608
:1019CC003960FB7197F90730002B0ADB3B68DAB200
:1019DC000C4997F907301201D2B20B4483F800235B
:1019EC000AE03B68DAB20849FB7903F00F03043BC9
:1019FC001201D2B20B441A7600BF0C37BD4680BC24
:101A0C00704700BF00E100E000ED00E080B489B059
:101A1C0000AFF860B9607A60FB6803F00703FB6104
:101A2C00FB69C3F10703042B28BF0423BB61FB69CB
:101A3C000433062B02D9FB69033B00E000237B61D6
:101A4C004FF0FF32BB6902FA03F3DA43BB681A406A
:101A5C007B699A404FF0FF317B6901FA03F3D9435C
:101A6C007B680B40134318462437BD4680BC704737
:101A7C0080B582B000AF78607B68013BB3F1807FAA
:101A8C0001D301230FE00A4A7B68013B53600F210D
:101A9C004FF0FF30FFF790FF054B00229A60044B8C
:101AAC0007221A60002318460837BD4680BD00BFC8
:101ABC0010E000E080B582B000AF78607868FFF786
:101ACC002DFF00BF0837BD4680BD80B586B000AF86
:101ADC000346B9607A60FB7300237B61FFF742FF1A
:101AEC0078617A68B9687869FFF790FF024697F9D0
:101AFC000F3011461846FFF75FFF00BF1837BD4681
:101B0C0080BD80B582B000AF0346FB7197F90730FA
:101B1C001846FFF735FF00BF0837BD4680BD80B5BE
:101B2C0082B000AF78607868FFF7A2FF03461846D2
:101B3C000837BD4680BD000080B48BB000AF786024
:101B4C00396000237B6200233B6248E101227B6AFF
:101B5C0002FA03F3FB613B681B68FA691340BB6133
:101B6C00BA69FB699A4240F037813B685B68A34ACB
:101B7C0093425ED0A14A934275D8A14A934258D061
:101B8C009F4A93426FD89F4A934252D09D4A9342A8
:101B9C0069D89D4A93424CD09B4A934263D89B4A46
:101BAC00934246D0994A93425DD8122B2AD8122BD5
:101BBC0059D801A252F823F03F1C0008191C000848
:101BCC002B1C00086D1C0008731C0008731C0008FB
:101BDC00731C0008731C0008731C0008731C00089D
:101BEC00731C0008731C0008731C0008731C00088D
:101BFC00731C0008731C0008731C0008211C0008CF
:101C0C00351C0008824A934213D02CE03B68DB68F9
:101C1C003B6229E03B68DB6804333B6224E03B68B1
:101C2C00DB6808333B621FE03B68DB680C333B62CC
:101C3C001AE03B689B68002B02D104233B6213E043
:101C4C003B689B68012B05D108233B627B68FA69D2
:101C5C001A6109E008233B627B68FA695A6103E068
:101C6C0000233B6200E000BFBB69FF2B01D87B68FF
:101C7C0001E07B6804337B61BB69FF2B02D87B6A74
:101C8C009B0002E07B6A083B9B003B617B691A6806
:101C9C000F213B6901FA03F3DB431A40396A3B69B4
:101CAC0001FA03F31A437B691A603B685B6803F023
:101CBC008053002B00F09080564B9B69554A43F0A3
:101CCC0001039361534B9B6903F00103BB60BB6839
:101CDC00514A7B6A9B08023352F82330FB607B6AC3
:101CEC0003F003039B000F2202FA03F3DB43FA68B1
:101CFC001340FB607B68494A93420DD07B68484A8D
:101D0C00934207D07B68474A934201D1022304E0F7
:101D1C00032302E0012300E000237A6A02F00302AD
:101D2C0092009340FA681343FB603B497B6A9B0823
:101D3C000233FA6841F823203B685B6803F4801394
:101D4C00002B06D0384B9A683749BB6913438B601C
:101D5C0006E0354B9A68BB69DB43334913408B6013
:101D6C003B685B6803F40013002B06D02E4BDA683B
:101D7C002D49BB691343CB6006E02B4BDA68BB697A
:101D8C00DB4329491340CB603B685B6803F40033A9
:101D9C00002B06D0244B5A682349BB6913434B6074
:101DAC0006E0214B5A68BB69DB431F4913404B606B
:101DBC003B685B6803F48033002B06D01A4B1A681F
:101DCC001949BB6913430B6006E0174B1A68BB69D2
:101DDC00DB43154913400B607B6A01337B623B6824
:101DEC001A687B6A22FA03F3002B7FF4AFAE00BFB4
:101DFC0000BF2C37BD4680BC704700BF00003210BE
:101E0C000000311000002210000021100000121000
:101E1C0000001110001002400000014000080140B9
:101E2C00000C0140001001400004014080B485B05A
:101E3C0000AF78600B467B807B689A687B88134088
:101E4C00002B02D00123FB7301E00023FB73FB7B0F
:101E5C0018461437BD4680BC704780B483B000AFC1
:101E6C0078600B467B8013467B707B78002B03D00D
:101E7C007A887B681A6103E07B881A047B681A6194
:101E8C0000BF0C37BD4680BC704780B485B000AF36
:101E9C0078600B467B807B68DB68FB607A88FB682C
:101EAC0013401A04FB68D9437B880B401A437B68A8
:101EBC001A6100BF1437BD4680BC704780B586B030
:101ECC0000AF78607B68002B01D101236CE27B684A
:101EDC001B6803F00103002B00F08780924B5B68BA
:101EEC0003F00C03042B0CD08F4B5B6803F00C033A
:101EFC00082B12D18C4B5B6803F48033B3F5803F15
:101F0C000BD1894B1B6803F40033002B6CD07B681E
:101F1C005B68002B68D1012346E27B685B68B3F5F4
:101F2C00803F06D1804B1B687F4A43F4803313609B
:101F3C002EE07B685B68002B0CD17B4B1B687A4ACC
:101F4C0023F480331360784B1B68774A23F4802387
:101F5C0013601DE07B685B68B3F5A02F0CD1724B4E
:101F6C001B68714A43F4802313606F4B1B686E4AE5
:101F7C0043F4803313600BE06B4B1B686A4A23F409
:101F8C0080331360684B1B68674A23F4802313600B
:101F9C007B685B68002B13D0FFF7B6FC386108E058
:101FAC00FFF7B2FC02463B69D31A642B01D9032319
:101FBC00FAE15D4B1B6803F40033002BF0D014E006
:101FCC00FFF7A2FC386108E0FFF79EFC02463B6974
:101FDC00D31A642B01D90323E6E1534B1B6803F49A
:101FEC000033002BF0D100E000BF7B681B6803F0CE
:101FFC000203002B63D04C4B5B6803F00C03002BEB
:10200C000BD0494B5B6803F00C03082B1CD1464BDF
:10201C005B6803F48033002B16D1434B1B6803F031
:10202C000203002B05D07B681B69012B01D0012317
:10203C00BAE13D4B1B6823F0F8027B685B69DB005F
:10204C00394913430B603AE07B681B69002B20D0A5
:10205C00364B01221A60FFF757FC386108E0FFF796
:10206C0053FC02463B69D31A022B01D903239BE193
:10207C002D4B1B6803F00203002BF0D02A4B1B687E
:10208C0023F0F8027B685B69DB00274913430B6084
:10209C0015E0264B00221A60FFF736FC386108E089
:1020AC00FFF732FC02463B69D31A022B01D90323FA
:1020BC007AE11D4B1B6803F00203002BF0D17B6807
:1020CC001B6803F00803002B3AD07B689B69002B3C
:1020DC0019D0174B01221A60FFF716FC386108E083
:1020EC00FFF712FC02463B69D31A022B01D90323DA
:1020FC005AE10D4B5B6A03F00203002BF0D0012078
:10210C0000F09AFA1CE00A4B00221A60FFF7FCFB65
:10211C0038610FE0FFF7F8FB02463B69D31A022B3C
:10212C0008D9032340E100BF0010024000004242E6
:10213C00800442429E4B5B6A03F00203002BE9D100
:10214C007B681B6803F00403002B00F0A6800023BF
:10215C00FB75974BDB6903F08053002B0DD1944B2F
:10216C00DB69934A43F08053D361914BDB6903F0F5
:10217C008053BB60BB680123FB758E4B1B6803F45B
:10218C008073002B18D18B4B1B688A4A43F48073E5
:10219C001360FFF7B9FB386108E0FFF7B5FB0246A7
:1021AC003B69D31A642B01D90323FDE0814B1B68D7
:1021BC0003F48073002BF0D07B68DB68012B06D115
:1021CC007B4B1B6A7A4A43F0010313622DE07B6858
:1021DC00DB68002B0CD1764B1B6A754A23F001038C
:1021EC001362734B1B6A724A23F0040313621CE0E4
:1021FC007B68DB68052B0CD16D4B1B6A6C4A43F07A
:10220C00040313626A4B1B6A694A43F001031362AD
:10221C000BE0674B1B6A664A23F001031362644BA5
:10222C001B6A634A23F0040313627B68DB68002B90
:10223C0015D0FFF769FB38610AE0FFF765FB024632
:10224C003B69D31A41F28832934201D90323ABE0A4
:10225C00574B1B6A03F00203002BEED014E0FFF780
:10226C0053FB38610AE0FFF74FFB02463B69D31A78
:10227C0041F28832934201D9032395E04C4B1B6AFF
:10228C0003F00203002BEED1FB7D012B05D1484B53
:10229C00DB69474A23F08053D3617B68DB69002BF1
:1022AC0000F08180424B5B6803F00C03082B61D07B
:1022BC007B68DB69022B46D13F4B00221A60FFF78B
:1022CC0023FB386108E0FFF71FFB02463B69D31A7A
:1022DC00022B01D9032367E0354B1B6803F0007315
:1022EC00002BF0D17B681B6AB3F5803F08D1304BD3
:1022FC005B6823F400327B689B682D4913434B6069
:10230C002B4B5B6823F474127B68196A7B685B6ADD
:10231C000B43274913434B60274B01221A60FFF7ED
:10232C00F3FA386108E0FFF7EFFA02463B69D31A7B
:10233C00022B01D9032337E01D4B1B6803F00073FC
:10234C00002BF0D02FE01C4B00221A60FFF7DCFAB8
:10235C00386108E0FFF7D8FA02463B69D31A022B22
:10236C0001D9032320E0124B1B6803F00073002BF0
:10237C00F0D118E07B68DB69012B01D1012313E05C
:10238C000B4B5B68FB60FB6803F480327B681B6A59
:10239C009A4206D1FB6803F470127B685B6A9A421E
:1023AC0001D0012300E0002318461837BD4680BD3C
:1023BC0000100240007000406000424280B584B0C2
:1023CC0000AF786039607B68002B01D10123D0E02D
:1023DC006A4B1B6803F007033A689A4210D9674BA3
:1023EC001B6823F0070265493B6813430B60634B82
:1023FC001B6803F007033A689A4201D00123B8E046
:10240C007B681B6803F00203002B20D07B681B68E1
:10241C0003F00403002B05D0594B5B68584A43F476
:10242C00E06353607B681B6803F00803002B05D046
:10243C00534B5B68524A43F460535360504B5B6898
:10244C0023F0F0027B689B684D4913434B607B681B
:10245C001B6803F00103002B40D07B685B68012BE9
:10246C0007D1474B1B6803F40033002B15D1012314
:10247C007FE07B685B68022B07D1414B1B6803F044
:10248C000073002B09D1012373E03D4B1B6803F053
:10249C000203002B01D101236BE0394B5B6823F065
:1024AC0003027B685B68364913434B60FFF72CFAD9
:1024BC00F8600AE0FFF728FA0246FB68D31A41F2EB
:1024CC008832934201D9032353E02D4B5B6803F010
:1024DC000C027B685B689B009A42EBD1274B1B6814
:1024EC0003F007033A689A4210D2244B1B6823F07E
:1024FC00070222493B6813430B60204B1B6803F017
:10250C0007033A689A4201D0012332E07B681B68CA
:10251C0003F00403002B08D0194B5B6823F4E06232
:10252C007B68DB68164913434B607B681B6803F0C0
:10253C000803002B09D0124B5B6823F460527B68B4
:10254C001B69DB000E4913434B6000F021F8024677
:10255C000B4B5B681B0903F00F030A49CB5C22FA97
:10256C0003F3094A1360094B1B681846FFF78AF9F5
:10257C00002318461037BD4680BD00BF0020024026
:10258C0000100240C02E000824000020280000206B
:10259C0080B487B000AF0023FB600023BB60002336
:1025AC007B6100237B6000233B611E4B5B68FB60FF
:1025BC00FB6803F00C03042B02D0082B03D027E09C
:1025CC00194B3B6127E0FB689B0C03F00F03174A88
:1025DC00D35C7B60FB6803F48033002B10D0114B71
:1025EC005B685B0C03F00103114AD35CBB607B6836
:1025FC000D4A02FB03F2BB68B2FBF3F37B6104E010
:10260C007B680C4A02FB03F37B617B693B6102E054
:10261C00054B3B6100BF3B6918461C37BD4680BC6F
:10262C00704700BF0010024000127A00D02E000844
:10263C00E02E000800093D0080B485B000AF786042
:10264C000A4B1B680A4AA2FB03235B0A7A6802FB4B
:10265C0003F3FB6000BFFB685A1EFA60002BF9D134
:10266C0000BF00BF1437BD4680BC7047240000205B
:10267C00D34D621080B582B000AF78607B68002BC0
:10268C0001D1012341E07B6893F83D30DBB2002B94
:10269C0006D17B68002283F83C207868FEF76EFF39
:1026AC007B68022283F83D207B681A687B680433C0
:1026BC001946104600F06EFA7B68012283F846201A
:1026CC007B68012283F83E207B68012283F83F203F
:1026DC007B68012283F840207B68012283F841202B
:1026EC007B68012283F842207B68012283F8432017
:1026FC007B68012283F844207B68012283F8452003
:10270C007B68012283F83D20002318460837BD461C
:10271C0080BD000080B485B000AF78607B6893F812
:10272C003D30DBB2012B01D0012335E07B68022266
:10273C0083F83D207B681B68DA687B681B6842F075
:10274C000102DA607B681B68164A934209D07B68E9
:10275C001B68B3F1804F04D07B681B68124A93420C
:10276C0011D17B681B689B6803F00703FB60FB6857
:10277C00062B10D07B681B681A687B681B6842F0BC
:10278C0001021A6007E07B681B681A687B681B688B
:10279C0042F001021A60002318461437BD4680BC73
:1027AC00704700BF002C01400004004080B582B08F
:1027BC0000AF78607B681B681B6903F00203022B77
:1027CC0022D17B681B68DB6803F00203022B1BD150
:1027DC007B681B686FF002021A617B6801221A7712
:1027EC007B681B689B6903F00303002B03D078689C
:1027FC0000F0B4F905E0786800F0A7F9786800F00B
:10280C00B6F97B6800221A777B681B681B6903F09A
:10281C000403042B22D17B681B68DB6803F00403E0
:10282C00042B1BD17B681B686FF004021A617B6858
:10283C0002221A777B681B689B6903F44073002B98
:10284C0003D0786800F08AF905E0786800F07DF92B
:10285C00786800F08CF97B6800221A777B681B681B
:10286C001B6903F00803082B22D17B681B68DB680B
:10287C0003F00803082B1BD17B681B686FF0080260
:10288C001A617B6804221A777B681B68DB6903F08A
:10289C000303002B03D0786800F060F905E078683A
:1028AC0000F053F9786800F062F97B6800221A771F
:1028BC007B681B681B6903F01003102B22D17B680B
:1028CC001B68DB6803F01003102B1BD17B681B68A3
:1028DC006FF010021A617B6808221A777B681B68FC
:1028EC00DB6903F44073002B03D0786800F036F9F1
:1028FC0005E0786800F029F9786800F038F97B6811
:10290C0000221A777B681B681B6903F00103012BFB
:10291C000ED17B681B68DB6803F00103012B07D128
:10292C007B681B686FF001021A617868FEF7ECFA9D
:10293C007B681B681B6903F08003802B0ED17B68BE
:10294C001B68DB6803F08003802B07D17B681B6856
:10295C006FF080021A61786800F06BFA7B681B6874
:10296C001B6903F04003402B0ED17B681B68DB68AE
:10297C0003F04003402B07D17B681B686FF04002CB
:10298C001A61786800F0FCF87B681B681B6903F01F
:10299C002003202B0ED17B681B68DB6803F020031F
:1029AC00202B07D17B681B686FF020021A617868B6
:1029BC0000F036FA00BF0837BD4680BD80B584B044
:1029CC0000AF786039600023FB737B6893F83C3070
:1029DC00012B01D10223B4E07B68012283F83C2057
:1029EC007B68022283F83D207B681B689B68BB6078
:1029FC00BB6823F07703BB60BB6823F47F43BB60E9
:102A0C007B681B68BA689A603B681B68B3F5005F0B
:102A1C003ED0B3F5005F00F28780B3F5805F00F025
:102A2C008680B3F5805F7FD8702B1AD0702B7BD843
:102A3C00602B50D0602B77D8502B3CD0502B73D8B8
:102A4C00402B58D0402B6FD8302B64D0302B6BD808
:102A5C00202B60D0202B67D8002B5CD0102B5AD0A9
:102A6C0062E07B6818683B6899683B685A683B6809
:102A7C00DB6800F05EF97B681B689B68BB60BB6819
:102A8C0043F07703BB607B681B68BA689A604FE0C1
:102A9C007B6818683B6899683B685A683B68DB68D8
:102AAC0000F047F97B681B689A687B681B6842F4E6
:102ABC0080429A603CE07B6818683B6859683B68C8
:102ACC00DB681A4600F0BEF87B681B68502118467C
:102ADC0000F015F92CE07B6818683B6859683B6876
:102AEC00DB681A4600F0DCF87B681B68602118462E
:102AFC0000F005F91CE07B6818683B6859683B6876
:102B0C00DB681A4600F09EF87B681B68402118466B
:102B1C0000F0F5F80CE07B681A683B681B681946F6
:102B2C00104600F0ECF803E00123FB7300E000BF5B
:102B3C007B68012283F83D207B68002283F83C20CF
:102B4C00FB7B18461037BD4680BD80B483B000AF08
:102B5C00786000BF0C37BD4680BC704780B483B032
:102B6C0000AF786000BF0C37BD4680BC704780B4A6
:102B7C0083B000AF786000BF0C37BD4680BC704797
:102B8C0080B483B000AF786000BF0C37BD4680BC0A
:102B9C007047000080B485B000AF786039607B6806
:102BAC001B68FB607B68254A934207D07B68B3F1B6
:102BBC00804F03D07B68224A934208D1FB6823F0F4
:102BCC007003FB603B685B68FA681343FB607B68CF
:102BDC001A4A934207D07B68B3F1804F03D07B68CD
:102BEC00174A934208D1FB6823F44073FB603B689F
:102BFC00DB68FA681343FB60FB6823F080023B68D8
:102C0C005B691343FB607B68FA681A603B689A68DF
:102C1C007B68DA623B681A687B689A627B68074A51
:102C2C00934203D13B681A697B681A637B68012263
:102C3C005A6100BF1437BD4680BC7047002C014060
:102C4C000004004080B487B000AFF860B9607A60CF
:102C5C00FB681B6A7B61FB681B6A23F00102FB6843
:102C6C001A62FB689B693B613B6923F0F0033B6193
:102C7C007B681B013A6913433B617B6923F00A03B0
:102C8C007B617A69BB6813437B61FB683A699A6123
:102C9C00FB687A691A6200BF1C37BD4680BC70475E
:102CAC0080B487B000AFF860B9607A60FB681B6ACB
:102CBC007B61FB681B6A23F01002FB681A62FB68DD
:102CCC009B693B613B6923F470433B617B681B034D
:102CDC003A6913433B617B6923F0A0037B61BB68BA
:102CEC001B017A6913437B61FB683A699A61FB6843
:102CFC007A691A6200BF1C37BD4680BC704780B42D
:102D0C0085B000AF786039607B689B68FB60FB68BE
:102D1C0023F07003FB603A68FB68134343F007032E
:102D2C00FB607B68FA689A6000BF1437BD4680BCB4
:102D3C00704780B487B000AFF860B9607A603B60D0
:102D4C00FB689B687B617B6923F47F437B613B68F9
:102D5C001A027B681A43BB6813437A6913437B617D
:102D6C00FB687A699A6000BF1C37BD4680BC70470F
:102D7C0080B485B000AF786039607B6893F83C30E4
:102D8C00012B01D1022341E07B68012283F83C2016
:102D9C007B68022283F83D207B681B685B68FB60C4
:102DAC007B681B689B68BB60FB6823F07003FB604F
:102DBC003B681B68FA681343FB607B681B68FA6806
:102DCC005A607B681B68144A934209D07B681B6865
:102DDC00B3F1804F04D07B681B68104A93420CD12E
:102DEC00BB6823F08003BB603B685B68BA68134325
:102DFC00BB607B681B68BA689A607B68012283F8A9
:102E0C003D207B68002283F83C20002318461437B1
:102E1C00BD4680BC704700BF002C01400004004040
:102E2C0080B483B000AF786000BF0C37BD4680BC67
:102E3C00704780B483B000AF786000BF0C37BD46DC
:102E4C0080BC704770B500260C4D0D4C641BA41053
:102E5C00A64209D100F022F800260A4D0A4C641B48
:102E6C00A410A64205D170BD55F8043B9847013615
:102E7C00EEE755F8043B98470136F2E7E42E0008DC
:102E8C00E42E0008E42E0008E82E00080346024455
:102E9C00934200D1704703F8011BF9E7F8B500BF66
:102EAC00F8BC08BC9E467047F8B500BFF8BC08BC1F
:042EBC009E46704777
:102EC00000000000000000000102030406070809DA
:102ED00002030405060708090A0B0C0D0E0F10105B
:042EE00001020000EB
:042EE40031010008B0
:042EE8000D010008D0
:102EEC0001000000010000000100000005000000CE
:102EFC0002000000030000000100000001000000BF
:102F0C00010000000024F40010000000010000008B
:0400000508001819BE
:00000001FF
