:020000040800F2
:1000000000280020F9170008B1150008B7150008EE
:10001000BD150008C3150008C91500080000000040
:10002000000000000000000000000000CF150008E4
:10003000DB15000800000000E7150008F3150008B4
:10004000411800084118000841180008411800082C
:10005000411800084118000841180008411800081C
:10006000411800084118000841180008411800080C
:1000700041180008411800084118000841180008FC
:1000800041180008411800084118000841180008EC
:1000900041180008411800084118000841180008DC
:1000A00041180008411800084118000841180008CC
:1000B000011600084118000800000000411800085F
:1000C000411800080000000000000000411800086E
:1000D000000000004118000841180008000000005E
:1000E00041180008411800084118000800000000ED
:1000F0000000000000000000000000000000000000
:0C01000000000000000000005FF808F1A3
:10010C0010B5054C237833B9044B13B10448AFF345
:10011C0000800123237010BD30000020000000007F
:10012C00882E000808B5034B1BB103490348AFF3F5
:10013C00008008BD0000000034000020882E00085C
:10014C0080B500AF714B1B68013B072B00F2D280CE
:10015C0001A252F823F000BF85010008010300083A
:10016C000103000801030008AF01000803020008A6
:10017C0059020008AB020008642001F017F90220B4
:10018C0001F048FA032001F0A1FA614B1B68614AA7
:10019C001360614B1B68614A13605C4B05221A604B
:1001AC00B1E05F4B1B68012B40F0A6805B4B1B68DA
:1001BC00012B12D1554B06221A60564B1B68013B82
:1001CC00544A1360574B1B68544A1360042001F0C7
:1001DC007DFA642001F0EAF88EE04E4B1B68013B7F
:1001EC004C4A13604D4B1B68013B4C4A1360642016
:1001FC0001F0DCF880E04A4B1B68012B7ED1454BAB
:10020C001B68012B14D1414B07221A60424B1B680F
:10021C00404A13603E4B1B68404A1360032001F0B8
:10022C00F9F9022001F052FA642001F0BFF865E000
:10023C00384B1B68013B374A1360384B1B68013B3A
:10024C00364A1360642001F0B1F857E0344B1B6858
:10025C00012B55D12F4B1B68012B12D12B4B082294
:10026C001A602E4B1B68013B2C4A13602D4B1B68EC
:10027C00284A1360042001F0CDF9642001F096F8AF
:10028C003EE0244B1B68013B224A1360234B1B6846
:10029C00013B224A1360642001F088F830E0204BC7
:1002AC001B68012B2ED11B4B1B68012B14D1174B38
:1002BC0005221A60164B1B68164A1360164B1B68F6
:1002CC00164A1360022001F0A5F9032001F0FEF993
:1002DC00642001F06BF815E00E4B1B68013B0D4AD6
:1002EC0013600E4B1B68013B0C4A1360642001F039
:1002FC005DF807E000BF06E000BF04E000BF02E0CD
:10030C0000BF00E000BF00BF80BD00BF00000020A8
:10031C000C00002004000020140000200800002025
:10032C006C0000201000002080B500AF164B1B683D
:10033C00012B05D0002B22DD023B022B1FD80FE036
:10034C00124B1B68012B1CD1114B1B68114A1268F4
:10035C001146184600F066FC322001F04FF810E010
:10036C000A4B1B68012B0AD10B4B1B68064A1268FF
:10037C001146184600F056FC322001F03FF800BF41
:10038C0000E000BF00BF80BD1800002084000020EA
:10039C0004000020080000201C00002080B483B062
:1003AC0000AF7860094A7B6852F82330012B06D1E4
:1003BC00064A7B68002142F82310012300E0002349
:1003CC0018460C37BD4680BC704700BF900000201B
:1003DC0090B583B000AF0023FB7187E0FA79FB790D
:1003EC004749895C474AD154FA79FB794649895C7B
:1003FC00434AD154FB79022B1CD0022B25DC002B59
:10040C0002D0012B0BD020E0FC794FF400613F4867
:10041C0001F0FCFC03461A463B4B1A5516E0FC79DE
:10042C004FF48051394801F0F1FC03461A46364B23
:10043C001A550BE0FC794FF40051344801F0E6FCFE
:10044C0003461A46304B1A5500E000BFFB792E4A82
:10045C00D25CFB792A49CB5C9A421CD1FB792A4AA3
:10046C00D25CFB792749CB5C9A4214D1FB79284AA0
:10047C00D35C012B09D1FB79234AD35C002B04D12B
:10048C00FB79244A012142F82310FA79FB791E49A1
:10049C00895C1F4AD154FB791D4AD35C002B14D1C3
:1004AC00FB791D4A32F81330632B09D8FB791A4AB1
:1004BC0032F81320013291B2174A22F8131012E0CD
:1004CC00FB79164A0121D1540DE0FB79114A002128
:1004DC0042F82310FB79104A002122F81310FB7903
:1004EC000E4A0021D154FB790133FB71FB79022BAD
:1004FC007FF674AF00BF00BF0C37BD4690BD00BF88
:10050C00540000205800002050000020000801403A
:10051C004C00002090000020600000205C000020B7
:10052C0080B483B000AF0346FB71FB79022B01D979
:10053C00FF2307E0FB79064AD35C012B0CBF012398
:10054C000023DBB218460C37BD4680BC704700BF99
:10055C005C00002080B582B000AF78607B68002B17
:10056C0023D101220121C24801F067FC00220221A3
:10057C00BF4801F062FC00220421BD4801F05DFC83
:10058C0000220821BA4801F058FC00221021B8487A
:10059C0001F053FC00222021B54801F04EFC002252
:1005AC004021B34801F049FC5DE17B68012B23D16C
:1005BC0001220121AE4801F040FC01220221AC488D
:1005CC0001F03BFC01220421A94801F036FC012278
:1005DC000821A74801F031FC01224021A44801F078
:1005EC002CFC00221021A24801F027FC0022202123
:1005FC009F4801F022FC36E17B68022B23D10122BB
:10060C0002219B4801F019FC01221021984801F0AD
:10061C0014FC00220121964801F00FFC0022042159
:10062C00934801F00AFC00220821914801F005FCD6
:10063C00002220218E4801F000FC002240218C4831
:10064C0001F0FBFB0FE17B68032B23D1012202217C
:10065C00874801F0F2FB01220421854801F0EDFBF3
:10066C0000220121824801F0E8FB00220821804889
:10067C0001F0E3FB002210217D4801F0DEFB00229B
:10068C0020217B4801F0D9FB00224021784801F061
:10069C00D4FBE8E07B68042B23D1012204217448AD
:1006AC0001F0CBFB01220821714801F0C6FB0122AD
:1006BC0040216F4801F0C1FB002201216C4801F080
:1006CC00BCFB002202216A4801F0B7FB002210217A
:1006DC00674801F0B2FB00222021654801F0ADFB18
:1006EC00C1E07B68052B23D101220421604801F075
:1006FC00A4FB012220215E4801F09FFB0022012176
:10070C005B4801F09AFB00220221594801F095FB4D
:10071C0000220821564801F090FB00221021544879
:10072C0001F08BFB00224021514801F086FB9AE03E
:10073C007B68062B23D1012220214D4801F07DFB43
:10074C00002201214A4801F078FB0022022148488E
:10075C0001F073FB00220421454801F06EFB0022DE
:10076C000821434801F069FB00221021404801F0A8
:10077C0064FB002240213E4801F05FFB73E07B6884
:10078C00072B23D101220121394801F056FB01220C
:10079C000221374801F051FB01220421344801F0B9
:1007AC004CFB01220821324801F047FB00221021AA
:1007BC002F4801F042FB002220212D4801F03DFB87
:1007CC00002240212A4801F038FB4CE07B68082BC2
:1007DC0023D100220121264801F02FFB0022022107
:1007EC00234801F02AFB00220421214801F025FBBB
:1007FC00002208211E4801F020FB002210211C4879
:10080C0001F01BFB00222021194801F016FB0022ED
:10081C004021174801F011FB25E07B68092B22D100
:10082C0001220421124801F008FB0022012110488A
:10083C0001F003FB002202210D4801F0FEFA002218
:10084C0008210B4801F0F9FA00221021084801F0A8
:10085C00F4FA00222021064801F0EFFA0022402190
:10086C00034801F0EAFA00BF0837BD4680BD00BF5F
:10087C00000C014080B582B000AF78607B68002B23
:10088C002AD101224FF40071CB4801F0D6FA002294
:10089C004FF48061C84801F0D0FA00224FF4006197
:1008AC00C54801F0CAFA00224FF48051C24801F049
:1008BC00C4FA00224FF40051BF4801F0BEFA0022E6
:1008CC004FF48041BC4801F0B8FA00224FF40041CB
:1008DC00B94801F0B2FA9EE17B68012B2AD10122C2
:1008EC004FF40071B44801F0A8FA01224FF4806172
:1008FC00B14801F0A2FA01224FF40061AE4801F0B8
:10090C009CFA01224FF48051AB4801F096FA012277
:10091C004FF40041A84801F090FA00224FF4005126
:10092C00A54801F08AFA00224FF48041A24801F058
:10093C0084FA70E17B68022B2AD101224FF480618A
:10094C009D4801F07AFA01224FF400519A4801F0C7
:10095C0074FA00224FF40071974801F06EFA0022ED
:10096C004FF40061944801F068FA00224FF4805172
:10097C00914801F062FA00224FF480418E4801F058
:10098C005CFA00224FF400418B4801F056FA42E128
:10099C007B68032B2AD101224FF48061864801F039
:1009AC004CFA01224FF40061834801F046FA002210
:1009BC004FF40071804801F040FA00224FF480514E
:1009CC007D4801F03AFA00224FF400517A4801F0C8
:1009DC0034FA00224FF48041774801F02EFA0022BD
:1009EC004FF40041744801F028FA14E17B68042BA1
:1009FC002AD101224FF400616F4801F01EFA012246
:100A0C004FF480516C4801F018FA01224FF4004168
:100A1C00694801F012FA00224FF40071664801F0A7
:100A2C000CFA00224FF48061634801F006FA0022B0
:100A3C004FF40051604801F000FA00224FF480415D
:100A4C005D4801F0FAF9E6E07B68052B2AD101221A
:100A5C004FF40061584801F0F0F901224FF4804145
:100A6C00554801F0EAF900224FF40071524801F0A8
:100A7C00E4F900224FF480614F4801F0DEF90022C6
:100A8C004FF480514C4801F0D8F900224FF400513A
:100A9C00494801F0D2F900224FF40041464801F0D8
:100AAC00CCF9B8E07B68062B2AD101224FF48041A7
:100ABC00414801F0C2F900224FF400713E4801F0A8
:100ACC00BCF900224FF480613B4801F0B6F90022DA
:100ADC004FF40061384801F0B0F900224FF4805116
:100AEC00354801F0AAF900224FF40051324801F0C8
:100AFC00A4F900224FF400412F4801F09EF98AE03E
:100B0C007B68072B2AD101224FF400712A4801F08F
:100B1C0094F901224FF48061274801F08EF90122EB
:100B2C004FF40061244801F088F901224FF4805100
:100B3C00214801F082F900224FF400511E4801F0C7
:100B4C007CF900224FF480411B4801F076F9002219
:100B5C004FF40041184801F070F95CE07B68082BF9
:100B6C002CD100224FF40071134801F066F90022D9
:100B7C004FF48061104801F060F900224FF40061DD
:100B8C000D4801F05AF900224FF480510A4801F047
:100B9C0054F900224FF40051074801F04EF900229D
:100BAC004FF48041044801F048F900224FF4004111
:100BBC00014801F042F92EE0000C01407B68092B42
:100BCC0029D101224FF40061154801F036F90022B9
:100BDC004FF40071124801F030F900224FF480619B
:100BEC000F4801F02AF900224FF480510C4801F013
:100BFC0024F900224FF40051094801F01EF900229B
:100C0C004FF48041064801F018F900224FF40041DE
:100C1C00034801F012F900BF0837BD4680BD00BF84
:100C2C00000C014080B586B000AF786039607B68FD
:100C3C002E4A82FB03129210DB17D31A7B617A685F
:100C4C002A4B83FB02139910D317C91A0B469B002E
:100C5C000B445B00D31A3B613B68244A82FB0312B2
:100C6C009210DB17D31AFB603A68204B83FB0213FC
:100C7C009910D317C91A0B469B000B445B00D31A6F
:100C8C00BB601B4B1B68012B02D0022B15D029E03B
:100C9C0001228021174801F0D0F800224FF4807116
:100CAC00144801F0CAF83869FFF754FCB868FFF72C
:100CBC00E1FD0F4B02221A6014E0002280210D4846
:100CCC0001F0BBF801224FF480710A4801F0B5F82D
:100CDC007869FFF73FFCF868FFF7CCFD044B012265
:100CEC001A6000BF00BF1837BD4680BD67666666D8
:100CFC00200000200008014080B500AF00F09CFDF2
:100D0C0000F016F800F09CF800F04EF8064801F0E0
:100D1C00F1FC064B01221A60322000F06FFB00F050
:100D2C0005F9FFF701FBFAE79C000020000000200A
:100D3C0080B590B000AF07F11803282200211846A7
:100D4C0002F094F83B1D00221A605A609A60DA6037
:100D5C001A610223BB610123BB621023FB620023D7
:100D6C007B6307F11803184601F098F80346002B33
:100D7C0001D000F0D5F80F237B600023BB6000236B
:100D8C00FB6000233B6100237B613B1D0021184667
:100D9C0001F004FB0346002B01D000F0C1F800BFAA
:100DAC004037BD4680BD000080B586B000AF07F16E
:100DBC00080300221A605A609A60DA603B460022EF
:100DCC001A605A601D4B4FF080421A601B4B41F663
:100DDC003F725A60194B00229A60184B0A22DA6053
:100DEC00164B00221A61154B00229A61134801F030
:100DFC0031FC0346002B01D000F092F84FF48053E5
:100E0C00BB6007F1080319460C4801F0C7FD034607
:100E1C00002B01D000F084F800233B6000237B60A2
:100E2C003B461946054801F093FF0346002B01D0C1
:100E3C0000F076F800BF1837BD4680BD9C0000203E
:100E4C0080B586B000AF07F1080300221A605A6023
:100E5C009A60DA60294B9B69284A43F0040393613A
:100E6C00264B9B6903F004037B607B68234B9B69D7
:100E7C00224A43F008039361204B9B6903F008035B
:100E8C003B603B68002240F2FE711D4800F0D5FF2C
:100E9C0000224FF67F611B4800F0CFFF40F2FE733B
:100EAC00BB600123FB6000233B6102237B6107F1E4
:100EBC0008031946124800F02FFE4FF67F63BB6003
:100ECC000123FB6000233B6102237B6107F10803D4
:100EDC0019460C4800F020FE4FF46053BB60002311
:100EEC00FB6001233B6107F108031946044800F03D
:100EFC0013FE00BF1837BD4680BD00BF0010024076
:100F0C0000080140000C014080B582B000AF786051
:100F1C0000F088FAFFF75CFA00BF0837BD4680BDC9
:100F2C0080B400AF72B600BFFEE7000080B500AF22
:100F3C00AD4B1B68013B032B00F21D8201A252F842
:100F4C0023F000BF610F0008D30F00082B1100081D
:100F5C0073120008FFF7F4F80020FFF7E1FA0346DC
:100F6C00002B15D0A14B1B68012B40F00682A04B27
:100F7C001B68A04A1360022000F04CFB022000F01A
:100F8C00A5FB994B02221A60642000F00FFAF4E1E1
:100F9C000020FFF703FA0346002B00F0EE81924B82
:100FAC0002221A60924B1B68924A1360022000F0D6
:100FBC0031FB022000F08AFB322000F0F7F91920F7
:100FCC0000F008FAD9E10020FFF7AAFA0346002B3B
:100FDC0014D0864B1B68012B30D1834B03221A6033
:100FEC00854B1B68834A1360042000F013FB04201C
:100FFC0000F06CFB642000F0D9F91FE07B4B1B6800
:10100C00012B05D1022000F0BDFB322000F0CEF9FF
:10101C000020FFF7C3F90346002B0FD0724B0322BD
:10102C001A60754B1B68734A1360042000F0F2FAC7
:10103C00042000F04BFB322000F0B8F90120FFF740
:10104C006FFA0346002B14D06C4B1B68012B23D179
:10105C00684B1B68632B03DD664B01221A6004E0AE
:10106C00644B1B680133634A1360192000F0B2F91A
:10107C0012E00120FFF792F90346002B0CD05D4BD8
:10108C001B68632B03DD5B4B01221A6004E0594B98
:10109C001B680133574A13600220FFF77FF90346A0
:1010AC00002B00F06C81534B1B68514A1360544B5E
:1010BC001A68514B1B681A444D4B1B689A4207DA4D
:1010CC004B4B1A684C4B1B68D31A4D4A136056E1B4
:1010DC004B4B1A68484B1B681A44454B1B689A4289
:1010EC0040F34D81424B1B68DA0F13445B101A46D8
:1010FC00434B1A603E4B1B68DA0F13445B101A46C5
:10110C003D4B1A603A4B1B6803F00103002B00F0B7
:10111C0036813B4B1B680133394A13602FE10020A9
:10112C00FFF7FEF90346002B14D0304B1B68012B44
:10113C0030D12D4B04221A60314B1B682D4A1360A1
:10114C00032000F067FA032000F0C0FA642000F0DE
:10115C002DF91FE0254B1B68012B05D1042000F055
:10116C0011FB322000F022F90020FFF717F903469B
:10117C00002B0FD01C4B04221A60214B1B681D4AFC
:10118C001360032000F046FA032000F09FFA32208F
:10119C0000F00CF90120FFF7C3F90346002B14D023
:1011AC00164B1B68012B32D1124B1B68632B03DDD2
:1011BC00104B01221A6004E00E4B1B6801330D4AE0
:1011CC001360192000F006F921E00120FFF7E6F882
:1011DC000346002B1BD0074B1B68632B12DD054B02
:1011EC0001221A6013E000BF180000206C000020E0
:1011FC000C0000201C000020100000207C000020AF
:10120C0014000020614B1B680133604A13600220FC
:10121C00FFF7C4F80346002B00F0B3805B4B1B6850
:10122C005B4A13605B4B1A68594B1B681A445A4B48
:10123C001B689A4200F0A580564B1A68544B1B68E9
:10124C001344554A1360544B1B68632B40F399802D
:10125C00514B63221A60504B1A684D4B1B68D31AC2
:10126C004C4A13608DE00020FFF75AF90346002B1F
:10127C0014D04A4B1B68012B26D1494B02221A6011
:10128C00454B1B68414A1360022000F0C3F9022051
:10129C0000F01CFA642000F089F815E03F4B1B6845
:1012AC00012B05D1032000F06DFA322000F07EF8FE
:1012BC000020FFF773F80346002B05D0384B0122B2
:1012CC001A60384B01221A600120FFF729F90346F6
:1012DC00002B14D0344B1B68012B23D12B4B1B68D8
:1012EC00632B03DD294B01221A6004E0274B1B689A
:1012FC000133264A1360192000F06CF812E001202B
:10130C00FFF74CF80346002B0CD0204B1B68632BCB
:10131C0003DD1E4B01221A6004E01C4B1B680133D9
:10132C001A4A13600220FFF739F80346002B2AD023
:10133C00164B1B68174A1360164B1A68144B1B6824
:10134C001A44154B1B689A421DD0124B1A68104B4D
:10135C001B681344104A13600F4B1B68632B12DD80
:10136C000D4B63221A600C4B1A680A4B1B68D31A7C
:10137C00074A136007E000BF06E000BF04E000BFAF
:10138C0002E000BF00E000BF00BF80BD1C000020D9
:10139C0010000020140000200C0000206C00002025
:1013AC0018000020000000207C00002080B483B0D6
:1013BC0000AF7860054A7B681360054B00221A6009
:1013CC0000BF0C37BD4680BC704700BF68000020D2
:1013DC006C00002080B483B000AF7860054A7B6855
:1013EC001360054B00221A6000BF0C37BD4680BC51
:1013FC00704700BF780000207C00002080B483B0D0
:10140C0000AF7860054A7B681360054B00221A60B8
:10141C0000BF0C37BD4680BC704700BF8000002069
:10142C008400002080B400AF294B1B68002B0BDD1F
:10143C00274B1B68013B264A1360254B1B68002B6E
:10144C0002DC244B01221A60234B1B68002B0BDDA2
:10145C00214B1B68013B204A13601F4B1B68002B60
:10146C0002DC1E4B01221A601D4B1B68002B0BDD8E
:10147C001B4B1B68013B1A4A1360194B1B68002B52
:10148C0002DC184B01221A60174B1B68002B0BDD7A
:10149C00154B1B68013B144A1360134B1B68002B44
:1014AC0002DC124B01221A60114B1B68002B0BDD66
:1014BC000F4B1B68013B0E4A13600D4B1B68002B36
:1014CC0002DC0C4B01221A6000BFBD4680BC704789
:1014DC00680000206C0000207000002074000020C8
:1014EC00780000207C000020800000208400002078
:1014FC00880000208C00002080B485B000AF154B14
:10150C009B69144A43F001039361124B9B6903F0EE
:10151C000103BB60BB680F4BDB690E4A43F0805381
:10152C00D3610C4BDB6903F080537B607B680A4B07
:10153C005B68FB60FB6823F0E063FB60FB6843F0D7
:10154C008063FB60044AFB68536000BF1437BD46E0
:10155C0080BC7047001002400000014080B584B090
:10156C0000AF78607B681B68B3F1804F13D10C4BD4
:10157C00DB690B4A43F00103D361094BDB6903F0D0
:10158C000103FB60FB68002200211C2000F08DFA97
:10159C001C2000F0A6FA00BF1037BD4680BD00BF6E
:1015AC000010024080B400AFFEE780B400AFFEE74D
:1015BC0080B400AFFEE780B400AFFEE780B400AFAC
:1015CC00FEE780B400AF00BFBD4680BC704780B45E
:1015DC0000AF00BFBD4680BC704780B400AF00BFF9
:1015EC00BD4680BC704780B500AF00F06BF900BF02
:1015FC0080BD000080B500AF024801F0C7F800BF05
:10160C0080BD00BF9C00002080B400AF00BFBD4671
:10161C0080BC704780B582B000AF78607B68013BBE
:10162C00032B4BD801A252F823F000BF4916000837
:10163C0069160008A9160008891600080122022163
:10164C00214800F0FAFB012204211F4800F0F5FBB1
:10165C00012208211C4800F0F0FB30E0002202219E
:10166C00194800F0EAFB01220421174800F0E5FBC1
:10167C0001220821144800F0E0FB20E001220221A5
:10168C00114800F0DAFB002204210F4800F0D5FBD2
:10169C00012208210C4800F0D0FB10E001220221AD
:1016AC00094800F0CAFB01220421074800F0C5FBE1
:1016BC0000220821044800F0C0FB00E000BF00BF7E
:1016CC000837BD4680BD00BF0008014080B582B020
:1016DC0000AF78607B68013B032B4BD801A252F81A
:1016EC0023F000BF0117000821170008611700083C
:1016FC004117000801221021214800F09EFB012215
:10170C0020211F4800F099FB012240211C4800F0C9
:10171C0094FB30E000221021194800F08EFB0122CE
:10172C002021174800F089FB01224021144800F0C9
:10173C0084FB20E001221021114800F07EFB0022E6
:10174C0020210F4800F079FB012240210C4800F0C9
:10175C0074FB10E001221021094800F06EFB0122FD
:10176C002021074800F069FB00224021044800F0CA
:10177C0064FB00E000BF00BF0837BD4680BD00BF62
:10178C000008014080B582B000AF78607B68042B04
:10179C001BD07B68042B21DC7B68022B03D07B687D
:1017AC00032B09D01AE002210F4800F05EFB102138
:1017BC000D4800F05AFB12E008210B4800F055FBD5
:1017CC004021094800F051FB09E00421064800F0D3
:1017DC004CFB2021044800F048FB00E000BF00BF98
:1017EC000837BD4680BD00BF00080140FFF70CFF65
:1017FC000B480C490C4A002302E0D458C450043363
:10180C00C4188C42F9D3094A094C002301E0136037
:10181C000432A242FBD301F005FBFFF76DFA7047CF
:10182C000000002030000020CC2E000830000020EA
:10183C00E8000020FEE7000080B500AF084B1B68F5
:10184C00074A43F010031360032000F023F90F2024
:10185C0000F008F8FFF750FE0023184680BD00BFCB
:10186C000020024080B582B000AF7860124B1A683D
:10187C00124B1B7819464FF47A73B3FBF1F3B2FB9E
:10188C00F3F3184600F03BF90346002B01D001237B
:10189C000EE07B680F2B0AD8002279684FF0FF30DE
:1018AC0000F003F9064A7B681360002300E0012373
:1018BC0018460837BD4680BD240000202C000020AF
:1018CC002800002080B400AF054B1B781A46054B4E
:1018DC001B681344034A136000BFBD4680BC7047AD
:1018EC002C000020E400002080B400AF024B1B68E9
:1018FC001846BD4680BC7047E400002080B485B01B
:10190C0000AF78607B6803F00703FB600C4BDB686F
:10191C00BB60BA684FF6FF031340BB60FB681A024A
:10192C00BB68134343F0BF6343F40033BB60044A0A
:10193C00BB68D36000BF1437BD4680BC704700BF86
:10194C0000ED00E080B400AF044BDB681B0A03F031
:10195C0007031846BD4680BC704700BF00ED00E091
:10196C0080B483B000AF0346FB7197F90730002BAE
:10197C000BDBFB7903F01F02064997F907305B0973
:10198C00012000FA02F241F8232000BF0C37BD46BB
:10199C0080BC704700E100E080B483B000AF034628
:1019AC003960FB7197F90730002B0ADB3B68DAB220
:1019BC000C4997F907301201D2B20B4483F800237B
:1019CC000AE03B68DAB20849FB7903F00F03043BE9
:1019DC001201D2B20B441A7600BF0C37BD4680BC44
:1019EC00704700BF00E100E000ED00E080B489B07A
:1019FC0000AFF860B9607A60FB6803F00703FB6125
:101A0C00FB69C3F10703042B28BF0423BB61FB69EB
:101A1C000433062B02D9FB69033B00E000237B61F6
:101A2C004FF0FF32BB6902FA03F3DA43BB681A408A
:101A3C007B699A404FF0FF317B6901FA03F3D9437C
:101A4C007B680B40134318462437BD4680BC704757
:101A5C0080B582B000AF78607B68013BB3F1807FCA
:101A6C0001D301230FE00A4A7B68013B53600F212D
:101A7C004FF0FF30FFF790FF054B00229A60044BAC
:101A8C0007221A60002318460837BD4680BD00BFE8
:101A9C0010E000E080B582B000AF78607868FFF7A6
:101AAC002DFF00BF0837BD4680BD80B586B000AFA6
:101ABC000346B9607A60FB7300237B61FFF742FF3A
:101ACC0078617A68B9687869FFF790FF024697F9F0
:101ADC000F3011461846FFF75FFF00BF1837BD46A1
:101AEC0080BD80B582B000AF0346FB7197F907301B
:101AFC001846FFF735FF00BF0837BD4680BD80B5DF
:101B0C0082B000AF78607868FFF7A2FF03461846F2
:101B1C000837BD4680BD000080B48BB000AF786044
:101B2C00396000237B6200233B6248E101227B6A1F
:101B3C0002FA03F3FB613B681B68FA691340BB6153
:101B4C00BA69FB699A4240F037813B685B68A34AEB
:101B5C0093425ED0A14A934275D8A14A934258D081
:101B6C009F4A93426FD89F4A934252D09D4A9342C8
:101B7C0069D89D4A93424CD09B4A934263D89B4A66
:101B8C00934246D0994A93425DD8122B2AD8122BF5
:101B9C0059D801A252F823F01F1C0008F91B0008A9
:101BAC000B1C00084D1C0008531C0008531C00089B
:101BBC00531C0008531C0008531C0008531C00083D
:101BCC00531C0008531C0008531C0008531C00082D
:101BDC00531C0008531C0008531C0008011C00086F
:101BEC00151C0008824A934213D02CE03B68DB683A
:101BFC003B6229E03B68DB6804333B6224E03B68D2
:101C0C00DB6808333B621FE03B68DB680C333B62EC
:101C1C001AE03B689B68002B02D104233B6213E063
:101C2C003B689B68012B05D108233B627B68FA69F2
:101C3C001A6109E008233B627B68FA695A6103E088
:101C4C0000233B6200E000BFBB69FF2B01D87B681F
:101C5C0001E07B6804337B61BB69FF2B02D87B6A94
:101C6C009B0002E07B6A083B9B003B617B691A6826
:101C7C000F213B6901FA03F3DB431A40396A3B69D4
:101C8C0001FA03F31A437B691A603B685B6803F043
:101C9C008053002B00F09080564B9B69554A43F0C3
:101CAC0001039361534B9B6903F00103BB60BB6859
:101CBC00514A7B6A9B08023352F82330FB607B6AE3
:101CCC0003F003039B000F2202FA03F3DB43FA68D1
:101CDC001340FB607B68494A93420DD07B68484AAD
:101CEC00934207D07B68474A934201D1022304E018
:101CFC00032302E0012300E000237A6A02F00302CE
:101D0C0092009340FA681343FB603B497B6A9B0843
:101D1C000233FA6841F823203B685B6803F48013B4
:101D2C00002B06D0384B9A683749BB6913438B603C
:101D3C0006E0354B9A68BB69DB43334913408B6033
:101D4C003B685B6803F40013002B06D02E4BDA685B
:101D5C002D49BB691343CB6006E02B4BDA68BB699A
:101D6C00DB4329491340CB603B685B6803F40033C9
:101D7C00002B06D0244B5A682349BB6913434B6094
:101D8C0006E0214B5A68BB69DB431F4913404B608B
:101D9C003B685B6803F48033002B06D01A4B1A683F
:101DAC001949BB6913430B6006E0174B1A68BB69F2
:101DBC00DB43154913400B607B6A01337B623B6844
:101DCC001A687B6A22FA03F3002B7FF4AFAE00BFD4
:101DDC0000BF2C37BD4680BC704700BF00003210DE
:101DEC000000311000002210000021100000121021
:101DFC0000001110001002400000014000080140DA
:101E0C00000C0140001001400004014080B485B07A
:101E1C0000AF78600B467B807B689A687B881340A8
:101E2C00002B02D00123FB7301E00023FB73FB7B2F
:101E3C0018461437BD4680BC704780B483B000AFE1
:101E4C0078600B467B8013467B707B78002B03D02D
:101E5C007A887B681A6103E07B881A047B681A61B4
:101E6C0000BF0C37BD4680BC704780B485B000AF56
:101E7C0078600B467B807B68DB68FB607A88FB684C
:101E8C0013401A04FB68D9437B880B401A437B68C8
:101E9C001A6100BF1437BD4680BC704780B586B050
:101EAC0000AF78607B68002B01D101236CE27B686A
:101EBC001B6803F00103002B00F08780924B5B68DA
:101ECC0003F00C03042B0CD08F4B5B6803F00C035A
:101EDC00082B12D18C4B5B6803F48033B3F5803F35
:101EEC000BD1894B1B6803F40033002B6CD07B683F
:101EFC005B68002B68D1012346E27B685B68B3F515
:101F0C00803F06D1804B1B687F4A43F480331360BB
:101F1C002EE07B685B68002B0CD17B4B1B687A4AEC
:101F2C0023F480331360784B1B68774A23F48023A7
:101F3C0013601DE07B685B68B3F5A02F0CD1724B6E
:101F4C001B68714A43F4802313606F4B1B686E4A05
:101F5C0043F4803313600BE06B4B1B686A4A23F429
:101F6C0080331360684B1B68674A23F4802313602B
:101F7C007B685B68002B13D0FFF7B6FC386108E078
:101F8C00FFF7B2FC02463B69D31A642B01D9032339
:101F9C00FAE15D4B1B6803F40033002BF0D014E026
:101FAC00FFF7A2FC386108E0FFF79EFC02463B6994
:101FBC00D31A642B01D90323E6E1534B1B6803F4BA
:101FCC000033002BF0D100E000BF7B681B6803F0EE
:101FDC000203002B63D04C4B5B6803F00C03002B0B
:101FEC000BD0494B5B6803F00C03082B1CD1464B00
:101FFC005B6803F48033002B16D1434B1B6803F052
:10200C000203002B05D07B681B69012B01D0012337
:10201C00BAE13D4B1B6823F0F8027B685B69DB007F
:10202C00394913430B603AE07B681B69002B20D0C5
:10203C00364B01221A60FFF757FC386108E0FFF7B6
:10204C0053FC02463B69D31A022B01D903239BE1B3
:10205C002D4B1B6803F00203002BF0D02A4B1B689E
:10206C0023F0F8027B685B69DB00274913430B60A4
:10207C0015E0264B00221A60FFF736FC386108E0A9
:10208C00FFF732FC02463B69D31A022B01D903231A
:10209C007AE11D4B1B6803F00203002BF0D17B6827
:1020AC001B6803F00803002B3AD07B689B69002B5C
:1020BC0019D0174B01221A60FFF716FC386108E0A3
:1020CC00FFF712FC02463B69D31A022B01D90323FA
:1020DC005AE10D4B5B6A03F00203002BF0D0012098
:1020EC0000F09AFA1CE00A4B00221A60FFF7FCFB86
:1020FC0038610FE0FFF7F8FB02463B69D31A022B5D
:10210C0008D9032340E100BF001002400000424206
:10211C00800442429E4B5B6A03F00203002BE9D120
:10212C007B681B6803F00403002B00F0A6800023DF
:10213C00FB75974BDB6903F08053002B0DD1944B4F
:10214C00DB69934A43F08053D361914BDB6903F015
:10215C008053BB60BB680123FB758E4B1B6803F47B
:10216C008073002B18D18B4B1B688A4A43F4807305
:10217C001360FFF7B9FB386108E0FFF7B5FB0246C7
:10218C003B69D31A642B01D90323FDE0814B1B68F7
:10219C0003F48073002BF0D07B68DB68012B06D135
:1021AC007B4B1B6A7A4A43F0010313622DE07B6878
:1021BC00DB68002B0CD1764B1B6A754A23F00103AC
:1021CC001362734B1B6A724A23F0040313621CE004
:1021DC007B68DB68052B0CD16D4B1B6A6C4A43F09A
:1021EC00040313626A4B1B6A694A43F001031362CE
:1021FC000BE0674B1B6A664A23F001031362644BC6
:10220C001B6A634A23F0040313627B68DB68002BB0
:10221C0015D0FFF769FB38610AE0FFF765FB024652
:10222C003B69D31A41F28832934201D90323ABE0C4
:10223C00574B1B6A03F00203002BEED014E0FFF7A0
:10224C0053FB38610AE0FFF74FFB02463B69D31A98
:10225C0041F28832934201D9032395E04C4B1B6A1F
:10226C0003F00203002BEED1FB7D012B05D1484B73
:10227C00DB69474A23F08053D3617B68DB69002B11
:10228C0000F08180424B5B6803F00C03082B61D09B
:10229C007B68DB69022B46D13F4B00221A60FFF7AB
:1022AC0023FB386108E0FFF71FFB02463B69D31A9A
:1022BC00022B01D9032367E0354B1B6803F0007335
:1022CC00002BF0D17B681B6AB3F5803F08D1304BF3
:1022DC005B6823F400327B689B682D4913434B6089
:1022EC002B4B5B6823F474127B68196A7B685B6AFE
:1022FC000B43274913434B60274B01221A60FFF70E
:10230C00F3FA386108E0FFF7EFFA02463B69D31A9B
:10231C00022B01D9032337E01D4B1B6803F000731C
:10232C00002BF0D02FE01C4B00221A60FFF7DCFAD8
:10233C00386108E0FFF7D8FA02463B69D31A022B42
:10234C0001D9032320E0124B1B6803F00073002B10
:10235C00F0D118E07B68DB69012B01D1012313E07C
:10236C000B4B5B68FB60FB6803F480327B681B6A79
:10237C009A4206D1FB6803F470127B685B6A9A423E
:10238C0001D0012300E0002318461837BD4680BD5C
:10239C0000100240007000406000424280B584B0E2
:1023AC0000AF786039607B68002B01D10123D0E04D
:1023BC006A4B1B6803F007033A689A4210D9674BC3
:1023CC001B6823F0070265493B6813430B60634BA2
:1023DC001B6803F007033A689A4201D00123B8E066
:1023EC007B681B6803F00203002B20D07B681B6802
:1023FC0003F00403002B05D0594B5B68584A43F497
:10240C00E06353607B681B6803F00803002B05D066
:10241C00534B5B68524A43F460535360504B5B68B8
:10242C0023F0F0027B689B684D4913434B607B683B
:10243C001B6803F00103002B40D07B685B68012B09
:10244C0007D1474B1B6803F40033002B15D1012334
:10245C007FE07B685B68022B07D1414B1B6803F064
:10246C000073002B09D1012373E03D4B1B6803F073
:10247C000203002B01D101236BE0394B5B6823F085
:10248C0003027B685B68364913434B60FFF72CFAF9
:10249C00F8600AE0FFF728FA0246FB68D31A41F20B
:1024AC008832934201D9032353E02D4B5B6803F030
:1024BC000C027B685B689B009A42EBD1274B1B6834
:1024CC0003F007033A689A4210D2244B1B6823F09E
:1024DC00070222493B6813430B60204B1B6803F037
:1024EC0007033A689A4201D0012332E07B681B68EB
:1024FC0003F00403002B08D0194B5B6823F4E06253
:10250C007B68DB68164913434B607B681B6803F0E0
:10251C000803002B09D0124B5B6823F460527B68D4
:10252C001B69DB000E4913434B6000F021F8024697
:10253C000B4B5B681B0903F00F030A49CB5C22FAB7
:10254C0003F3094A1360094B1B681846FFF78AF915
:10255C00002318461037BD4680BD00BF0020024046
:10256C0000100240A02E00082400002028000020AB
:10257C0080B487B000AF0023FB600023BB60002356
:10258C007B6100237B6000233B611E4B5B68FB601F
:10259C00FB6803F00C03042B02D0082B03D027E0BC
:1025AC00194B3B6127E0FB689B0C03F00F03174AA8
:1025BC00D35C7B60FB6803F48033002B10D0114B91
:1025CC005B685B0C03F00103114AD35CBB607B6856
:1025DC000D4A02FB03F2BB68B2FBF3F37B6104E030
:1025EC007B680C4A02FB03F37B617B693B6102E075
:1025FC00054B3B6100BF3B6918461C37BD4680BC90
:10260C00704700BF0010024000127A00B02E000884
:10261C00C02E000800093D0080B485B000AF786082
:10262C000A4B1B680A4AA2FB03235B0A7A6802FB6B
:10263C0003F3FB6000BFFB685A1EFA60002BF9D154
:10264C0000BF00BF1437BD4680BC7047240000207B
:10265C00D34D621080B582B000AF78607B68002BE0
:10266C0001D1012341E07B6893F83D30DBB2002BB4
:10267C0006D17B68002283F83C207868FEF76EFF59
:10268C007B68022283F83D207B681A687B680433E0
:10269C001946104600F06EFA7B68012283F846203A
:1026AC007B68012283F83E207B68012283F83F205F
:1026BC007B68012283F840207B68012283F841204B
:1026CC007B68012283F842207B68012283F8432037
:1026DC007B68012283F844207B68012283F8452023
:1026EC007B68012283F83D20002318460837BD463D
:1026FC0080BD000080B485B000AF78607B6893F833
:10270C003D30DBB2012B01D0012335E07B68022286
:10271C0083F83D207B681B68DA687B681B6842F095
:10272C000102DA607B681B68164A934209D07B6809
:10273C001B68B3F1804F04D07B681B68124A93422C
:10274C0011D17B681B689B6803F00703FB60FB6877
:10275C00062B10D07B681B681A687B681B6842F0DC
:10276C0001021A6007E07B681B681A687B681B68AB
:10277C0042F001021A60002318461437BD4680BC93
:10278C00704700BF002C01400004004080B582B0AF
:10279C0000AF78607B681B681B6903F00203022B97
:1027AC0022D17B681B68DB6803F00203022B1BD170
:1027BC007B681B686FF002021A617B6801221A7732
:1027CC007B681B689B6903F00303002B03D07868BC
:1027DC0000F0B4F905E0786800F0A7F9786800F02B
:1027EC00B6F97B6800221A777B681B681B6903F0BB
:1027FC000403042B22D17B681B68DB6803F0040301
:10280C00042B1BD17B681B686FF004021A617B6878
:10281C0002221A777B681B689B6903F44073002BB8
:10282C0003D0786800F08AF905E0786800F07DF94B
:10283C00786800F08CF97B6800221A777B681B683B
:10284C001B6903F00803082B22D17B681B68DB682B
:10285C0003F00803082B1BD17B681B686FF0080280
:10286C001A617B6804221A777B681B68DB6903F0AA
:10287C000303002B03D0786800F060F905E078685A
:10288C0000F053F9786800F062F97B6800221A773F
:10289C007B681B681B6903F01003102B22D17B682B
:1028AC001B68DB6803F01003102B1BD17B681B68C3
:1028BC006FF010021A617B6808221A777B681B681C
:1028CC00DB6903F44073002B03D0786800F036F911
:1028DC0005E0786800F029F9786800F038F97B6831
:1028EC0000221A777B681B681B6903F00103012B1C
:1028FC000ED17B681B68DB6803F00103012B07D149
:10290C007B681B686FF001021A617868FEF7FCFAAD
:10291C007B681B681B6903F08003802B0ED17B68DE
:10292C001B68DB6803F08003802B07D17B681B6876
:10293C006FF080021A61786800F06BFA7B681B6894
:10294C001B6903F04003402B0ED17B681B68DB68CE
:10295C0003F04003402B07D17B681B686FF04002EB
:10296C001A61786800F0FCF87B681B681B6903F03F
:10297C002003202B0ED17B681B68DB6803F020033F
:10298C00202B07D17B681B686FF020021A617868D6
:10299C0000F036FA00BF0837BD4680BD80B584B064
:1029AC0000AF786039600023FB737B6893F83C3090
:1029BC00012B01D10223B4E07B68012283F83C2077
:1029CC007B68022283F83D207B681B689B68BB6098
:1029DC00BB6823F07703BB60BB6823F47F43BB6009
:1029EC007B681B68BA689A603B681B68B3F5005F2C
:1029FC003ED0B3F5005F00F28780B3F5805F00F046
:102A0C008680B3F5805F7FD8702B1AD0702B7BD863
:102A1C00602B50D0602B77D8502B3CD0502B73D8D8
:102A2C00402B58D0402B6FD8302B64D0302B6BD828
:102A3C00202B60D0202B67D8002B5CD0102B5AD0C9
:102A4C0062E07B6818683B6899683B685A683B6829
:102A5C00DB6800F05EF97B681B689B68BB60BB6839
:102A6C0043F07703BB607B681B68BA689A604FE0E1
:102A7C007B6818683B6899683B685A683B68DB68F8
:102A8C0000F047F97B681B689A687B681B6842F406
:102A9C0080429A603CE07B6818683B6859683B68E8
:102AAC00DB681A4600F0BEF87B681B68502118469C
:102ABC0000F015F92CE07B6818683B6859683B6896
:102ACC00DB681A4600F0DCF87B681B68602118464E
:102ADC0000F005F91CE07B6818683B6859683B6896
:102AEC00DB681A4600F09EF87B681B68402118468C
:102AFC0000F0F5F80CE07B681A683B681B68194617
:102B0C00104600F0ECF803E00123FB7300E000BF7B
:102B1C007B68012283F83D207B68002283F83C20EF
:102B2C00FB7B18461037BD4680BD80B483B000AF28
:102B3C00786000BF0C37BD4680BC704780B483B052
:102B4C0000AF786000BF0C37BD4680BC704780B4C6
:102B5C0083B000AF786000BF0C37BD4680BC7047B7
:102B6C0080B483B000AF786000BF0C37BD4680BC2A
:102B7C007047000080B485B000AF786039607B6826
:102B8C001B68FB607B68254A934207D07B68B3F1D6
:102B9C00804F03D07B68224A934208D1FB6823F014
:102BAC007003FB603B685B68FA681343FB607B68EF
:102BBC001A4A934207D07B68B3F1804F03D07B68ED
:102BCC00174A934208D1FB6823F44073FB603B68BF
:102BDC00DB68FA681343FB60FB6823F080023B68F8
:102BEC005B691343FB607B68FA681A603B689A6800
:102BFC007B68DA623B681A687B689A627B68074A72
:102C0C00934203D13B681A697B681A637B68012283
:102C1C005A6100BF1437BD4680BC7047002C014080
:102C2C000004004080B487B000AFF860B9607A60EF
:102C3C00FB681B6A7B61FB681B6A23F00102FB6863
:102C4C001A62FB689B693B613B6923F0F0033B61B3
:102C5C007B681B013A6913433B617B6923F00A03D0
:102C6C007B617A69BB6813437B61FB683A699A6143
:102C7C00FB687A691A6200BF1C37BD4680BC70477E
:102C8C0080B487B000AFF860B9607A60FB681B6AEB
:102C9C007B61FB681B6A23F01002FB681A62FB68FD
:102CAC009B693B613B6923F470433B617B681B036D
:102CBC003A6913433B617B6923F0A0037B61BB68DA
:102CCC001B017A6913437B61FB683A699A61FB6863
:102CDC007A691A6200BF1C37BD4680BC704780B44D
:102CEC0085B000AF786039607B689B68FB60FB68DF
:102CFC0023F07003FB603A68FB68134343F007034F
:102D0C00FB607B68FA689A6000BF1437BD4680BCD4
:102D1C00704780B487B000AFF860B9607A603B60F0
:102D2C00FB689B687B617B6923F47F437B613B6819
:102D3C001A027B681A43BB6813437A6913437B619D
:102D4C00FB687A699A6000BF1C37BD4680BC70472F
:102D5C0080B485B000AF786039607B6893F83C3004
:102D6C00012B01D1022341E07B68012283F83C2036
:102D7C007B68022283F83D207B681B685B68FB60E4
:102D8C007B681B689B68BB60FB6823F07003FB606F
:102D9C003B681B68FA681343FB607B681B68FA6826
:102DAC005A607B681B68144A934209D07B681B6885
:102DBC00B3F1804F04D07B681B68104A93420CD14E
:102DCC00BB6823F08003BB603B685B68BA68134345
:102DDC00BB607B681B68BA689A607B68012283F8C9
:102DEC003D207B68002283F83C20002318461437D2
:102DFC00BD4680BC704700BF002C01400004004061
:102E0C0080B483B000AF786000BF0C37BD4680BC87
:102E1C00704780B483B000AF786000BF0C37BD46FC
:102E2C0080BC704770B500260C4D0D4C641BA41073
:102E3C00A64209D100F022F800260A4D0A4C641B68
:102E4C00A410A64205D170BD55F8043B9847013635
:102E5C00EEE755F8043B98470136F2E7C42E00081C
:102E6C00C42E0008C42E0008C82E000803460244D5
:102E7C00934200D1704703F8011BF9E7F8B500BF86
:102E8C00F8BC08BC9E467047F8B500BFF8BC08BC3F
:042E9C009E46704797
:102EA00000000000000000000102030406070809FA
:102EB00002030405060708090A0B0C0D0E0F10107B
:042EC000010200000B
:042EC40031010008D0
:042EC8000D010008F0
:102ECC0001000000010000000100000005000000EE
:102EDC0002000000030000000100000001000000DF
:102EEC00010000000024F4001000000001000000AC
:04000005080017F9DF
:00000001FF
