:020000040800F2
:10000000002800207D160008910C0008970C0008BD
:100010009D0C0008A30C0008A90C000800000000BB
:10002000000000000000000000000000AF0C00080D
:10003000BB0C000800000000C70C0008D30C00082F
:10004000C5160008C5160008C5160008C516000824
:10005000C5160008C5160008C5160008C516000814
:10006000C5160008C5160008C5160008C516000804
:10007000C5160008C5160008C5160008C5160008F4
:10008000C5160008C5160008C5160008C5160008E4
:10009000C5160008C5160008C5160008C5160008D4
:1000A000C5160008C5160008C5160008C5160008C4
:1000B000E10C0008C516000800000000C516000885
:1000C000C51600080000000000000000C51600086A
:1000D00000000000C5160008C5160008000000005A
:1000E000C5160008C5160008C51600080000000067
:1000F0000000000000000000000000000000000000
:0C01000000000000000000005FF808F1A3
:10010C0010B5054C237833B9044B13B10448AFF345
:10011C0000800123237010BD2C0000200000000083
:10012C000C2D000808B5034B1BB103490348AFF372
:10013C00008008BD00000000300000200C2D0008DD
:10014C0080B500AF8F4B1B68013B072B00F20F8172
:10015C0001A252F823F000BF850100087B030008C0
:10016C007B0300087B030008BF0100085302000852
:10017C00B702000817030008834B1B68642202FBBC
:10018C0003F3184600F06EFC642000F07FFC0220A4
:10019C0001F018F9032001F071F97C4B1B687C4AC3
:1001AC001360794B1B687B4A1360764B05221A60EF
:1001BC00E6E0002000F032F90346002B12D0714B20
:1001CC0002221A60714B1B68734A1360022001F003
:1001DC00F9F8022001F052F9322000F043FC19200A
:1001EC0000F068FC6D4B1B68012B19D1654B062286
:1001FC001A60042001F042F9694B1B68654A1360D0
:10020C00674B1B68642202FB03F3184600F02AFCC0
:10021C00642000F03BFC5E4B1B68013B5C4A1360A6
:10022C00604B1B68012B40F0A480594B1B68013BB1
:10023C00574A1360574B1B68013B564A13606420A6
:10024C0000F024FC95E0554B1B68012B1BD14D4B4A
:10025C0007221A604C4B1B684D4A13604B4B1B68B2
:10026C004C4A1360032001F0ADF8022001F006F9AE
:10027C00454B1B68642202FB03F3184600F0F2FBAB
:10028C00642000F003FC474B1B68012B73D1404BDF
:10029C001B68013B3E4A13603E4B1B68013B3D4AC9
:1002AC001360642000F0F2FB65E03C4B1B68012BF3
:1002BC0019D1344B08221A60042001F083F8384B12
:1002CC001B68642202FB03F3184600F0CBFB64208E
:1002DC0000F0DCFB324B1B682D4A13602D4B1B6866
:1002EC00013B2C4A13602F4B1B68012B45D1284B2B
:1002FC001B68013B264A1360264B1B68013B254AB1
:10030C001360642000F0C2FB37E0244B1B68012B08
:10031C001BD11C4B05221A601C4B1B681C4A13601A
:10032C00194B1B681B4A1360022001F04BF8032089
:10033C0001F0A4F81A4B1B68642202FB03F3184665
:10034C0000F090FB642000F0A1FB164B1B68012B06
:10035C0015D10F4B1B68013B0D4A13600D4B1B68ED
:10036C00013B0C4A1360642000F090FB07E000BFD7
:10037C0006E000BF04E000BF02E000BF00E000BFE9
:10038C0000BF80BD00000020140000200C000020E5
:10039C000400002008000020180000206800002045
:1003AC00100000207000002080B500AF164B1B68B9
:1003BC00042B02DC022B13DA21E0053B032B1ED8A5
:1003CC00124B1B68012B1CD1114B1B68114A126874
:1003DC001146184601F0E2F8322000F07FFB10E0E5
:1003EC000A4B1B68012B0AD10B4B1B68064A12687F
:1003FC001146184601F0D2F8322000F06FFB00BF16
:10040C0000E000BF00BF80BD000000208000002085
:10041C0004000020080000201800002080B483B0E5
:10042C0000AF7860094A7B6852F82330012B06D163
:10043C00064A7B68002142F82310012300E00023C8
:10044C0018460C37BD4680BC704700BF8C0000209E
:10045C0090B583B000AF0023FB7187E0FA79FB798C
:10046C004749895C474AD154FA79FB794649895CFA
:10047C00434AD154FB79022B1CD0022B25DC002BD8
:10048C0002D0012B0BD020E0FC794FF400613F48E7
:10049C0001F0FEFB03461A463B4B1A5516E0FC795D
:1004AC004FF48051394801F0F3FB03461A46364BA2
:1004BC001A550BE0FC794FF40051344801F0E8FB7D
:1004CC0003461A46304B1A5500E000BFFB792E4A02
:1004DC00D25CFB792A49CB5C9A421CD1FB792A4A23
:1004EC00D25CFB792749CB5C9A4214D1FB79284A20
:1004FC00D35C012B09D1FB79234AD35C002B04D1AB
:10050C00FB79244A012142F82310FA79FB791E4920
:10051C00895C1F4AD154FB791D4AD35C002B14D142
:10052C00FB791D4A32F81330632B09D8FB791A4A30
:10053C0032F81320013291B2174A22F8131012E04C
:10054C00FB79164A0121D1540DE0FB79114A0021A7
:10055C0042F82310FB79104A002122F81310FB7982
:10056C000E4A0021D154FB790133FB71FB79022B2C
:10057C007FF674AF00BF00BF0C37BD4690BD00BF07
:10058C0050000020540000204C00002000080140C6
:10059C00480000208C0000205C0000205800002047
:1005AC0080B500AF01F08AF800F018F800F09EF862
:1005BC0000F050F8074801F0DFFF074B01221A60EA
:1005CC00322000F08BFAFFF7BBFD00F005F9FFF7C6
:1005DC00EBFEF8E7980000200000002080B590B0FA
:1005EC0000AF07F1180328220021184602F080FB07
:1005FC003B1D00221A605A609A60DA601A6102236D
:10060C00BB610123BB621023FB6200237B6307F1F8
:10061C001803184601F084FB0346002B01D000F0B0
:10062C00D5F80F237B600023BB600023FB60002305
:10063C003B6100237B613B1D0021184601F0F0FD5E
:10064C000346002B01D000F0C1F800BF4037BD4677
:10065C0080BD000080B586B000AF07F10803002212
:10066C001A605A609A60DA603B4600221A605A603F
:10067C001D4B4FF080421A601B4B41F63F725A6083
:10068C00194B00229A60184B0A22DA60164B002292
:10069C001A61154B00229A61134801F01DFF0346A5
:1006AC00002B01D000F092F84FF48053BB6007F19F
:1006BC00080319460C4802F0B3F80346002B01D08E
:1006CC0000F084F800233B6000237B603B46194616
:1006DC00054802F07FFA0346002B01D000F076F8B3
:1006EC0000BF1837BD4680BD9800002080B586B08D
:1006FC0000AF07F1080300221A605A609A60DA60B2
:10070C00294B9B69284A43F004039361264B9B6950
:10071C0003F004037B607B68234B9B69224A43F004
:10072C0008039361204B9B6903F008033B603B6813
:10073C00002240F2FE711D4801F0C1FA00224FF672
:10074C007F611B4801F0BBFA40F2FE73BB600123D2
:10075C00FB6000233B6102237B6107F10803194610
:10076C00124801F01BF94FF67F63BB600123FB605D
:10077C0000233B6102237B6107F1080319460C48F7
:10078C0001F00CF94FF46053BB600023FB600123B4
:10079C003B6107F108031946044801F0FFF800BF5C
:1007AC001837BD4680BD00BF001002400008014054
:1007BC00000C014080B582B000AF786000F0A2F967
:1007CC00FFF746FE00BF0837BD4680BD80B400AFC2
:1007DC0072B600BFFEE7000080B500AF9B4B1B68F4
:1007EC00042B00F0DA80042B00F32681022B02D0BC
:1007FC00032B76D020E1964B1B68012B05D10220F0
:10080C0000F098FE322000F02DF90020FFF706FED4
:10081C000346002B0FD08D4B03221A608D4B1B68A7
:10082C008D4A1360042000F0CDFD042000F026FE5C
:10083C00322000F017F90120FFF7F0FD0346002BE2
:10084C000CD0854B1B68632B03DD834B01221A6094
:10085C0004E0814B1B6801337F4A13600220FFF7D1
:10086C00DDFD0346002B00F0E9807B4B1B687B4AC7
:10087C0013607B4B1A68774B1B681A44774B1B68C9
:10088C009A4207DA754B1A68724B1B68D31A744A72
:10089C001360D3E0724B1A686E4B1B681A446F4B93
:1008AC001B689A4240F3CA806C4B1B68DA0F1344E6
:1008BC005B101A466A4B1A60684B1B68DA0F1344BC
:1008CC005B101A46634B1A60644B1B6803F0010300
:1008DC00002B00F0B380624B1B680133604A13603D
:1008EC00ACE05B4B1B68012B05D1042000F022FE11
:1008FC00322000F0B7F80020FFF790FD0346002BE4
:10090C000FD0524B04221A60554B1B68524A13608D
:10091C00032000F057FD032000F0B0FD322000F062
:10092C00A1F80120FFF77AFD0346002B0CD04A4BAF
:10093C001B68632B03DD484B01221A6004E0464B15
:10094C001B680133444A13600220FFF767FD03461E
:10095C00002B75D0404B1B683E4A1360404B1A6805
:10096C003C4B1B681A443D4B1B689A4268D03C4B6D
:10097C001A68384B1B681344384A1360374B1B6892
:10098C00632B5DDD354B63221A60344B1A68314B97
:10099C001B68D31A324A136052E02D4B1B68012B93
:1009AC0005D1032000F0C6FD322000F05BF80020DA
:1009BC00FFF734FD0346002B02D0244B01221A60B2
:1009CC000120FFF72BFD0346002B0CD0224B1B689C
:1009DC00632B03DD204B01221A6004E01E4B1B68C5
:1009EC0001331D4A13600220FFF718FD0346002B4C
:1009FC0028D0194B1B681A4A1360194B1A68154BEF
:100A0C001B681A44154B1B689A421BD0144B1A686E
:100A1C00104B1B681344114A1360104B1B68632B5B
:100A2C0010DD0E4B63221A600C4B1A680C4B1B68C2
:100A3C00D31A084A136005E000BF04E000BF02E0CF
:100A4C0000BF00E000BF00BF80BD00BF0000002061
:100A5C006800002010000020180000200C0000206E
:100A6C001400002080B483B000AF7860054A7B6826
:100A7C001360054B00221A6000BF0C37BD4680BCCA
:100A8C00704700BF640000206800002080B483B071
:100A9C0000AF7860054A7B681360054B00221A6032
:100AAC0000BF0C37BD4680BC704700BF6C000020F7
:100ABC007000002080B483B000AF7860054A7B687A
:100ACC001360054B00221A6000BF0C37BD4680BC7A
:100ADC00704700BF740000207800002080B483B001
:100AEC0000AF7860054A7B681360054B00221A60E2
:100AFC0000BF0C37BD4680BC704700BF7C00002097
:100B0C008000002080B400AF294B1B68002B0BDD4C
:100B1C00274B1B68013B264A1360254B1B68002B97
:100B2C0002DC244B01221A60234B1B68002B0BDDCB
:100B3C00214B1B68013B204A13601F4B1B68002B89
:100B4C0002DC1E4B01221A601D4B1B68002B0BDDB7
:100B5C001B4B1B68013B1A4A1360194B1B68002B7B
:100B6C0002DC184B01221A60174B1B68002B0BDDA3
:100B7C00154B1B68013B144A1360134B1B68002B6D
:100B8C0002DC124B01221A60114B1B68002B0BDD8F
:100B9C000F4B1B68013B0E4A13600D4B1B68002B5F
:100BAC0002DC0C4B01221A6000BFBD4680BC7047B2
:100BBC0064000020680000206C0000207000002001
:100BCC0074000020780000207C00002080000020B1
:100BDC00840000208800002080B485B000AF154B45
:100BEC009B69144A43F001039361124B9B6903F018
:100BFC000103BB60BB680F4BDB690E4A43F08053AB
:100C0C00D3610C4BDB6903F080537B607B680A4B30
:100C1C005B68FB60FB6823F0E063FB60FB6843F000
:100C2C008063FB60044AFB68536000BF1437BD4609
:100C3C0080BC7047001002400000014080B584B0B9
:100C4C0000AF78607B681B68B3F1804F13D10C4BFD
:100C5C00DB690B4A43F00103D361094BDB6903F0F9
:100C6C000103FB60FB68002200211C2000F05FFEEA
:100C7C001C2000F078FE00BF1037BD4680BD00BFC1
:100C8C000010024080B400AFFEE780B400AFFEE776
:100C9C0080B400AFFEE780B400AFFEE780B400AFD5
:100CAC00FEE780B400AF00BFBD4680BC704780B487
:100CBC0000AF00BFBD4680BC704780B400AF00BF22
:100CCC00BD4680BC704780B500AF00F03DFD00BF55
:100CDC0080BD000080B500AF024801F099FC00BF58
:100CEC0080BD00BF9800002080B400AF00BFBD469F
:100CFC0080BC704780B582B000AF78607B68002BF9
:100D0C0023D101220121C24800F0D9FF0022022187
:100D1C00BF4800F0D4FF00220421BD4800F0CFFFF3
:100D2C0000220821BA4800F0CAFF00221021B8485E
:100D3C0000F0C5FF00222021B54800F0C0FF0022C2
:100D4C004021B34800F0BBFF5DE17B68012B23D150
:100D5C0001220121AE4800F0B2FF01220221AC4871
:100D6C0000F0ADFF01220421A94800F0A8FF0122E8
:100D7C000821A74800F0A3FF01224021A44800F05D
:100D8C009EFF00221021A24800F099FF0022202192
:100D9C009F4800F094FF36E17B68022B23D101229F
:100DAC0002219B4800F08BFF01221021984800F093
:100DBC0086FF00220121964800F081FF00220421C9
:100DCC00934800F07CFF00220821914800F077FF47
:100DDC00002220218E4800F072FF002240218C4816
:100DEC0000F06DFF0FE17B68032B23D10122022160
:100DFC00874800F064FF01220421854800F05FFF62
:100E0C0000220121824800F05AFF0022082180486C
:100E1C0000F055FF002210217D4800F050FF002209
:100E2C0020217B4800F04BFF00224021784800F045
:100E3C0046FFE8E07B68042B23D10122042174488F
:100E4C0000F03DFF01220821714800F038FF01221B
:100E5C0040216F4800F033FF002201216C4800F064
:100E6C002EFF002202216A4800F029FF00221021E7
:100E7C00674800F024FF00222021654800F01FFF86
:100E8C00C1E07B68052B23D101220421604800F0CE
:100E9C0016FF012220215E4800F011FF00220121E3
:100EAC005B4800F00CFF00220221594800F007FFBC
:100EBC0000220821564800F002FF0022102154485D
:100ECC0000F0FDFE00224021514800F0F8FE9AE0AF
:100EDC007B68062B23D1012220214D4800F0EFFE28
:100EEC00002201214A4800F0EAFE00220221484873
:100EFC0000F0E5FE00220421454800F0E0FE00224F
:100F0C000821434800F0DBFE00221021404800F08D
:100F1C00D6FE002240213E4800F0D1FE73E07B68F3
:100F2C00072B23D101220121394800F0C8FE0122F0
:100F3C000221374800F0C3FE01220421344800F09E
:100F4C00BEFE01220821324800F0B9FE0022102119
:100F5C002F4800F0B4FE002220212D4800F0AFFEF7
:100F6C00002240212A4800F0AAFE4CE07B68082BA6
:100F7C0023D100220121264800F0A1FE00220221EB
:100F8C00234800F09CFE00220421214800F097FE2B
:100F9C00002208211E4800F092FE002210211C485D
:100FAC0000F08DFE00222021194800F088FE00225E
:100FBC004021174800F083FE25E07B68092B22D1E5
:100FCC0001220421124800F07AFE0022012110486F
:100FDC0000F075FE002202210D4800F070FE002288
:100FEC0008210B4800F06BFE00221021084800F08D
:100FFC0066FE00222021064800F061FE00224021FE
:10100C00034800F05CFE00BF0837BD4680BD00BF42
:10101C00000C014080B582B000AF78607B68002B7B
:10102C002AD101224FF40071CB4800F048FE002277
:10103C004FF48061C84800F042FE00224FF400617A
:10104C00C54800F03CFE00224FF48051C24800F02D
:10105C0036FE00224FF40051BF4800F030FE002253
:10106C004FF48041BC4800F02AFE00224FF40041AE
:10107C00B94800F024FE9EE17B68012B2AD10122A5
:10108C004FF40071B44800F01AFE01224FF4806155
:10109C00B14800F014FE01224FF40061AE4800F09C
:1010AC000EFE01224FF48051AB4800F008FE0122E5
:1010BC004FF40041A84800F002FE00224FF400510A
:1010CC00A54800F0FCFD00224FF48041A24800F03E
:1010DC00F6FD70E17B68022B2AD101224FF480616E
:1010EC009D4800F0ECFD01224FF400519A4800F0AD
:1010FC00E6FD00224FF40071974800F0E0FD00225D
:10110C004FF40061944800F0DAFD00224FF4805156
:10111C00914800F0D4FD00224FF480418E4800F03D
:10112C00CEFD00224FF400418B4800F0C8FD42E197
:10113C007B68032B2AD101224FF48061864800F092
:10114C00BEFD01224FF40061834800F0B8FD00227F
:10115C004FF40071804800F0B2FD00224FF4805132
:10116C007D4800F0ACFD00224FF400517A4800F0AD
:10117C00A6FD00224FF48041774800F0A0FD00222C
:10118C004FF40041744800F09AFD14E17B68042B85
:10119C002AD101224FF400616F4800F090FD01222A
:1011AC004FF480516C4800F08AFD01224FF400414D
:1011BC00694800F084FD00224FF40071664800F08D
:1011CC007EFD00224FF48061634800F078FD002220
:1011DC004FF40051604800F072FD00224FF4804142
:1011EC005D4800F06CFDE6E07B68052B2AD10122FE
:1011FC004FF40061584800F062FD01224FF4804129
:10120C00554800F05CFD00224FF40071524800F08C
:10121C0056FD00224FF480614F4800F050FD002233
:10122C004FF480514C4800F04AFD00224FF400511D
:10123C00494800F044FD00224FF40041464800F0BC
:10124C003EFDB8E07B68062B2AD101224FF4804189
:10125C00414800F034FD00224FF400713E4800F08C
:10126C002EFD00224FF480613B4800F028FD002247
:10127C004FF40061384800F022FD00224FF48051F9
:10128C00354800F01CFD00224FF40051324800F0AC
:10129C0016FD00224FF400412F4800F010FD8AE0AB
:1012AC007B68072B2AD101224FF400712A4800F0E9
:1012BC0006FD01224FF48061274800F000FD012259
:1012CC004FF40061244800F0FAFC01224FF48051E5
:1012DC00214800F0F4FC00224FF400511E4800F0AD
:1012EC00EEFC00224FF480411B4800F0E8FC002289
:1012FC004FF40041184800F0E2FC5CE07B68082BDE
:10130C002CD100224FF40071134800F0D8FC0022BD
:10131C004FF48061104800F0D2FC00224FF40061C1
:10132C000D4800F0CCFC00224FF480510A4800F02C
:10133C00C6FC00224FF40051074800F0C0FC00220C
:10134C004FF48041044800F0BAFC00224FF40041F5
:10135C00014800F0B4FC2EE0000C01407B68092B26
:10136C0029D101224FF40061154800F0A8FC00229D
:10137C004FF40071124800F0A2FC00224FF480617F
:10138C000F4800F09CFC00224FF480510C4800F0F8
:10139C0096FC00224FF40051094800F090FC00220A
:1013AC004FF48041064800F08AFC00224FF40041C3
:1013BC00034800F084FC00BF0837BD4680BD00BF69
:1013CC00000C014080B582B000AF78607B68013BB7
:1013DC00032B4BD801A252F823F000BFF9130008DD
:1013EC0019140008591400083914000801220221AC
:1013FC00214800F064FC012204211F4800F05FFC2E
:10140C00012208211C4800F05AFC30E00022022185
:10141C00194800F054FC01220421174800F04FFC3D
:10142C0001220821144800F04AFC20E0012202218C
:10143C00114800F044FC002204210F4800F03FFC4E
:10144C00012208210C4800F03AFC10E00122022194
:10145C00094800F034FC01220421074800F02FFC5D
:10146C0000220821044800F02AFC00E000BF00BF65
:10147C000837BD4680BD00BF0008014080B582B072
:10148C0000AF78607B68013B032B4BD801A252F86C
:10149C0023F000BFB1140008D11400081115000886
:1014AC00F114000801221021214800F008FC01224F
:1014BC0020211F4800F003FC012240211C4800F0B1
:1014CC00FEFB30E000221021194800F0F8FB01224D
:1014DC002021174800F0F3FB01224021144800F0B2
:1014EC00EEFB20E001221021114800F0E8FB002265
:1014FC0020210F4800F0E3FB012240210C4800F0B2
:10150C00DEFB10E001221021094800F0D8FB01227B
:10151C002021074800F0D3FB00224021044800F0B2
:10152C00CEFB00E000BF00BF0837BD4680BD00BF4A
:10153C000008014080B582B000AF78607B68042B56
:10154C001BD07B68042B21DC7B68022B03D07B68CF
:10155C00032B09D01AE002210F4800F0C8FB102120
:10156C000D4800F0C4FB12E008210B4800F0BFFB53
:10157C004021094800F0BBFB09E00421064800F0BB
:10158C00B6FB2021044800F0B2FB00E000BF00BF16
:10159C000837BD4680BD00BF0008014080B586B04D
:1015AC0000AF786039607B682E4A82FB0312921080
:1015BC00DB17D31A7B617A682A4B83FB02139910D1
:1015CC00D317C91A0B469B000B445B00D31A3B6123
:1015DC003B68244A82FB03129210DB17D31AFB6080
:1015EC003A68204B83FB02139910D317C91A0B4688
:1015FC009B000B445B00D31ABB601B4B1B68012B7D
:10160C0002D0022B15D029E001228021174800F0CE
:10161C0056FB00224FF48071144800F050FB3869DF
:10162C00FFF768FBB868FFF7F5FC0F4B02221A6056
:10163C0014E0002280210D4800F041FB01224FF400
:10164C0080710A4800F03BFB7869FFF753FBF868A0
:10165C00FFF7E0FC044B01221A6000BF00BF1837F3
:10166C00BD4680BD6766666620000020000801400C
:10167C00FFF73AFB0B480C490C4A002302E0D45804
:10168C00C4500433C4188C42F9D3094A094C0023C2
:10169C0001E013600432A242FBD301F005FBFEF71C
:1016AC007FFF7047000000202C000020502D000808
:1016BC002C000020E4000020FEE7000080B500AF05
:1016CC00084B1B68074A43F010031360032000F01B
:1016DC0023F90F2000F008F8FFF77EFA00231846D4
:1016EC0080BD00BF0020024080B582B000AF7860A2
:1016FC00124B1A68124B1B7819464FF47A73B3FBD2
:10170C00F1F3B2FBF3F3184600F03BF90346002B60
:10171C0001D001230EE07B680F2B0AD800227968D8
:10172C004FF0FF3000F003F9064A7B68136000238A
:10173C0000E0012318460837BD4680BD1C00002080
:10174C00280000202400002080B400AF054B1B783B
:10175C001A46054B1B681344034A136000BFBD4671
:10176C0080BC704728000020E000002080B400AF4F
:10177C00024B1B681846BD4680BC7047E000002039
:10178C0080B485B000AF78607B6803F00703FB6022
:10179C000C4BDB68BB60BA684FF6FF031340BB60B1
:1017AC00FB681A02BB68134343F0BF6343F4003376
:1017BC00BB60044ABB68D36000BF1437BD4680BC15
:1017CC00704700BF00ED00E080B400AF044BDB6855
:1017DC001B0A03F007031846BD4680BC704700BFC8
:1017EC0000ED00E080B483B000AF0346FB7197F9C5
:1017FC000730002B0BDBFB7903F01F02064997F92E
:10180C0007305B09012000FA02F241F8232000BFE7
:10181C000C37BD4680BC704700E100E080B483B05B
:10182C0000AF03463960FB7197F90730002B0ADBD8
:10183C003B68DAB20C4997F907301201D2B20B446B
:10184C0083F800230AE03B68DAB20849FB7903F01D
:10185C000F03043B1201D2B20B441A7600BF0C37B3
:10186C00BD4680BC704700BF00E100E000ED00E029
:10187C0080B489B000AFF860B9607A60FB6803F09F
:10188C000703FB61FB69C3F10703042B28BF042387
:10189C00BB61FB690433062B02D9FB69033B00E0F7
:1018AC0000237B614FF0FF32BB6902FA03F3DA438A
:1018BC00BB681A407B699A404FF0FF317B6901FA93
:1018CC0003F3D9437B680B40134318462437BD46BA
:1018DC0080BC704780B582B000AF78607B68013BFC
:1018EC00B3F1807F01D301230FE00A4A7B68013BEF
:1018FC0053600F214FF0FF30FFF790FF054B002294
:10190C009A60044B07221A60002318460837BD461C
:10191C0080BD00BF10E000E080B582B000AF786001
:10192C007868FFF72DFF00BF0837BD4680BD80B536
:10193C0086B000AF0346B9607A60FB7300237B610D
:10194C00FFF742FF78617A68B9687869FFF790FF12
:10195C00024697F90F3011461846FFF75FFF00BF9C
:10196C001837BD4680BD80B582B000AF0346FB7111
:10197C0097F907301846FFF735FF00BF0837BD460B
:10198C0080BD80B582B000AF78607868FFF7A2FFA9
:10199C00034618460837BD4680BD000080B48BB0A6
:1019AC0000AF7860396000237B6200233B6248E122
:1019BC0001227B6A02FA03F3FB613B681B68FA693C
:1019CC001340BB61BA69FB699A4240F037813B68AE
:1019DC005B68A34A93425ED0A14A934275D8A14A50
:1019EC00934258D09F4A93426FD89F4A934252D009
:1019FC009D4A934269D89D4A93424CD09B4A93424C
:101A0C0063D89B4A934246D0994A93425DD8122B95
:101A1C002AD8122B59D801A252F823F0A31A000885
:101A2C007D1A00088F1A0008D11A0008D71A00086E
:101A3C00D71A0008D71A0008D71A0008D71A0008B6
:101A4C00D71A0008D71A0008D71A0008D71A0008A6
:101A5C00D71A0008D71A0008D71A0008D71A000896
:101A6C00851A0008991A0008824A934213D02CE078
:101A7C003B68DB683B6229E03B68DB6804333B6214
:101A8C0024E03B68DB6808333B621FE03B68DB68A3
:101A9C000C333B621AE03B689B68002B02D1042399
:101AAC003B6213E03B689B68012B05D108233B622A
:101ABC007B68FA691A6109E008233B627B68FA6962
:101ACC005A6103E000233B6200E000BFBB69FF2BBF
:101ADC0001D87B6801E07B6804337B61BB69FF2B19
:101AEC0002D87B6A9B0002E07B6A083B9B003B614F
:101AFC007B691A680F213B6901FA03F3DB431A4037
:101B0C00396A3B6901FA03F31A437B691A603B6833
:101B1C005B6803F08053002B00F09080564B9B6960
:101B2C00554A43F001039361534B9B6903F0010346
:101B3C00BB60BB68514A7B6A9B08023352F8233066
:101B4C00FB607B6A03F003039B000F2202FA03F392
:101B5C00DB43FA681340FB607B68494A93420DD023
:101B6C007B68484A934207D07B68474A934201D12D
:101B7C00022304E0032302E0012300E000237A6A3D
:101B8C0002F0030292009340FA681343FB603B4956
:101B9C007B6A9B080233FA6841F823203B685B6838
:101BAC0003F48013002B06D0384B9A683749BB6975
:101BBC0013438B6006E0354B9A68BB69DB433349B2
:101BCC0013408B603B685B6803F40013002B06D05A
:101BDC002E4BDA682D49BB691343CB6006E02B4BC7
:101BEC00DA68BB69DB4329491340CB603B685B680F
:101BFC0003F40033002B06D0244B5A682349BB69ED
:101C0C0013434B6006E0214B5A68BB69DB431F4909
:101C1C0013404B603B685B6803F48033002B06D0A9
:101C2C001A4B1A681949BB6913430B6006E0174B32
:101C3C001A68BB69DB43154913400B607B6A01339F
:101C4C007B623B681A687B6A22FA03F3002B7FF4F1
:101C5C00AFAE00BF00BF2C37BD4680BC704700BF85
:101C6C000000321000003110000022100000211082
:101C7C000000121000001110001002400000014082
:101C8C0000080140000C014000100140000401401C
:101C9C0080B485B000AF78600B467B807B689A6817
:101CAC007B881340002B02D00123FB7301E000233F
:101CBC00FB73FB7B18461437BD4680BC704780B461
:101CCC0083B000AF78600B467B8013467B707B78CB
:101CDC00002B03D07A887B681A6103E07B881A0496
:101CEC007B681A6100BF0C37BD4680BC704780B45E
:101CFC0085B000AF78600B467B807B68DB68FB604F
:101D0C007A88FB6813401A04FB68D9437B880B4024
:101D1C001A437B681A6100BF1437BD4680BC7047FC
:101D2C0080B586B000AF78607B68002B01D10123B1
:101D3C006CE27B681B6803F00103002B00F08780CA
:101D4C00924B5B6803F00C03042B0CD08F4B5B683D
:101D5C0003F00C03082B12D18C4B5B6803F480331B
:101D6C00B3F5803F0BD1894B1B6803F40033002B78
:101D7C006CD07B685B68002B68D1012346E27B68E2
:101D8C005B68B3F5803F06D1804B1B687F4A43F4F8
:101D9C00803313602EE07B685B68002B0CD17B4B8F
:101DAC001B687A4A23F480331360784B1B68774A9C
:101DBC0023F4802313601DE07B685B68B3F5A02FD0
:101DCC000CD1724B1B68714A43F4802313606F4B28
:101DDC001B686E4A43F4803313600BE06B4B1B683B
:101DEC006A4A23F480331360684B1B68674A23F4F8
:101DFC00802313607B685B68002B13D0FFF7B6FC65
:101E0C00386108E0FFF7B2FC02463B69D31A642B39
:101E1C0001D90323FAE15D4B1B6803F40033002B5B
:101E2C00F0D014E0FFF7A2FC386108E0FFF79EFC4D
:101E3C0002463B69D31A642B01D90323E6E1534BC9
:101E4C001B6803F40033002BF0D100E000BF7B686B
:101E5C001B6803F00203002B63D04C4B5B6803F050
:101E6C000C03002B0BD0494B5B6803F00C03082BC5
:101E7C001CD1464B5B6803F48033002B16D1434BCB
:101E8C001B6803F00203002B05D07B681B69012B38
:101E9C0001D00123BAE13D4B1B6823F0F8027B68AB
:101EAC005B69DB00394913430B603AE07B681B69C3
:101EBC00002B20D0364B01221A60FFF757FC3861FB
:101ECC0008E0FFF753FC02463B69D31A022B01D9F9
:101EDC0003239BE12D4B1B6803F00203002BF0D076
:101EEC002A4B1B6823F0F8027B685B69DB002749EF
:101EFC0013430B6015E0264B00221A60FFF736FCEB
:101F0C00386108E0FFF732FC02463B69D31A022B1A
:101F1C0001D903237AE11D4B1B6803F00203002B4C
:101F2C00F0D17B681B6803F00803002B3AD07B6868
:101F3C009B69002B19D0174B01221A60FFF716FC76
:101F4C00386108E0FFF712FC02463B69D31A022BFA
:101F5C0001D903235AE10D4B5B6A03F00203002BFA
:101F6C00F0D0012000F09AFA1CE00A4B00221A6013
:101F7C00FFF7FCFB38610FE0FFF7F8FB02463B690B
:101F8C00D31A022B08D9032340E100BF00100240F2
:101F9C0000004242800442429E4B5B6A03F0020303
:101FAC00002BE9D17B681B6803F00403002B00F0C5
:101FBC00A6800023FB75974BDB6903F08053002B45
:101FCC000DD1944BDB69934A43F08053D361914B11
:101FDC00DB6903F08053BB60BB680123FB758E4B40
:101FEC001B6803F48073002B18D18B4B1B688A4A37
:101FFC0043F480731360FFF7B9FB386108E0FFF717
:10200C00B5FB02463B69D31A642B01D90323FDE0CF
:10201C00814B1B6803F48073002BF0D07B68DB686A
:10202C00012B06D17B4B1B6A7A4A43F001031362E6
:10203C002DE07B68DB68002B0CD1764B1B6A754A54
:10204C0023F001031362734B1B6A724A23F00403DF
:10205C0013621CE07B68DB68052B0CD16D4B1B6A93
:10206C006C4A43F0040313626A4B1B6A694A43F0DF
:10207C00010313620BE0674B1B6A664A23F00103F2
:10208C001362644B1B6A634A23F0040313627B687C
:10209C00DB68002B15D0FFF769FB38610AE0FFF70E
:1020AC0065FB02463B69D31A41F28832934201D94F
:1020BC000323ABE0574B1B6A03F00203002BEED05B
:1020CC0014E0FFF753FB38610AE0FFF74FFB0246C1
:1020DC003B69D31A41F28832934201D9032395E02C
:1020EC004C4B1B6A03F00203002BEED1FB7D012B42
:1020FC0005D1484BDB69474A23F08053D3617B6899
:10210C00DB69002B00F08180424B5B6803F00C0311
:10211C00082B61D07B68DB69022B46D13F4B002238
:10212C001A60FFF723FB386108E0FFF71FFB02463C
:10213C003B69D31A022B01D9032367E0354B1B688B
:10214C0003F00073002BF0D17B681B6AB3F5803F62
:10215C0008D1304B5B6823F400327B689B682D49B7
:10216C0013434B602B4B5B6823F474127B68196A26
:10217C007B685B6A0B43274913434B60274B012257
:10218C001A60FFF7F3FA386108E0FFF7EFFA02463E
:10219C003B69D31A022B01D9032337E01D4B1B6873
:1021AC0003F00073002BF0D02FE01C4B00221A60C0
:1021BC00FFF7DCFA386108E0FFF7D8FA02463B6912
:1021CC00D31A022B01D9032320E0124B1B6803F016
:1021DC000073002BF0D118E07B68DB69012B01D177
:1021EC00012313E00B4B5B68FB60FB6803F480324C
:1021FC007B681B6A9A4206D1FB6803F470127B68F9
:10220C005B6A9A4201D0012300E00023184618377C
:10221C00BD4680BD0010024000700040600042428C
:10222C0080B584B000AF786039607B68002B01D139
:10223C000123D0E06A4B1B6803F007033A689A420B
:10224C0010D9674B1B6823F0070265493B681343A1
:10225C000B60634B1B6803F007033A689A4201D08A
:10226C000123B8E07B681B6803F00203002B20D02D
:10227C007B681B6803F00403002B05D0594B5B688B
:10228C00584A43F4E06353607B681B6803F008030F
:10229C00002B05D0534B5B68524A43F46053536098
:1022AC00504B5B6823F0F0027B689B684D491343ED
:1022BC004B607B681B6803F00103002B40D07B68EC
:1022CC005B68012B07D1474B1B6803F40033002BD1
:1022DC0015D101237FE07B685B68022B07D1414B52
:1022EC001B6803F00073002B09D1012373E03D4BF5
:1022FC001B6803F00203002B01D101236BE0394B67
:10230C005B6823F003027B685B68364913434B60C0
:10231C00FFF72CFAF8600AE0FFF728FA0246FB6890
:10232C00D31A41F28832934201D9032353E02D4B47
:10233C005B6803F00C027B685B689B009A42EBD1F4
:10234C00274B1B6803F007033A689A4210D2244BC0
:10235C001B6823F0070222493B6813430B60204B98
:10236C001B6803F007033A689A4201D0012332E05C
:10237C007B681B6803F00403002B08D0194B5B68C7
:10238C0023F4E0627B68DB68164913434B607B687F
:10239C001B6803F00803002B09D0124B5B6823F475
:1023AC0060527B681B69DB000E4913434B6000F0E5
:1023BC0021F802460B4B5B681B0903F00F030A491B
:1023CC00CB5C22FA03F3094A1360094B1B681846CD
:1023DC00FFF78AF9002318461037BD4680BD00BFB1
:1023EC000020024000100240242D00081C00002098
:1023FC002400002080B487B000AF0023FB600023D2
:10240C00BB6000237B6100237B6000233B611E4B80
:10241C005B68FB60FB6803F00C03042B02D0082BF9
:10242C0003D027E0194B3B6127E0FB689B0C03F0C2
:10243C000F03174AD35C7B60FB6803F48033002BDB
:10244C0010D0114B5B685B0C03F00103114AD35C99
:10245C00BB607B680D4A02FB03F2BB68B2FBF3F373
:10246C007B6104E07B680C4A02FB03F37B617B69B4
:10247C003B6102E0054B3B6100BF3B6918461C37D2
:10248C00BD4680BC704700BF0010024000127A00AD
:10249C00342D0008442D000800093D0080B485B09F
:1024AC0000AF78600A4B1B680A4AA2FB03235B0A45
:1024BC007A6802FB03F3FB6000BFFB685A1EFA60EC
:1024CC00002BF9D100BF00BF1437BD4680BC70474C
:1024DC001C000020D34D621080B582B000AF786034
:1024EC007B68002B01D1012341E07B6893F83D30E0
:1024FC00DBB2002B06D17B68002283F83C20786885
:10250C00FEF79CFB7B68022283F83D207B681A68EF
:10251C007B6804331946104600F06EFA7B68012282
:10252C0083F846207B68012283F83E207B680122D9
:10253C0083F83F207B68012283F840207B680122CE
:10254C0083F841207B68012283F842207B680122BA
:10255C0083F843207B68012283F844207B680122A6
:10256C0083F845207B68012283F83D200023184620
:10257C000837BD4680BD000080B485B000AF7860E0
:10258C007B6893F83D30DBB2012B01D0012335E0A1
:10259C007B68022283F83D207B681B68DA687B68C5
:1025AC001B6842F00102DA607B681B68164A934292
:1025BC0009D07B681B68B3F1804F04D07B681B6823
:1025CC00124A934211D17B681B689B6803F0070386
:1025DC00FB60FB68062B10D07B681B681A687B6855
:1025EC001B6842F001021A6007E07B681B681A68DE
:1025FC007B681B6842F001021A60002318461437EE
:10260C00BD4680BC704700BF002C01400004004058
:10261C0080B582B000AF78607B681B681B6903F0E3
:10262C000203022B22D17B681B68DB6803F00203D8
:10263C00022B1BD17B681B686FF002021A617B684E
:10264C0001221A777B681B689B6903F00303002B3C
:10265C0003D0786800F0B4F905E0786800F0A7F9C9
:10266C00786800F0B6F97B6800221A777B681B68E3
:10267C001B6903F00403042B22D17B681B68DB6805
:10268C0003F00403042B1BD17B681B686FF004025E
:10269C001A617B6802221A777B681B689B6903F4BA
:1026AC004073002B03D0786800F08AF905E0786855
:1026BC0000F07DF9786800F08CF97B6800221A77BD
:1026CC007B681B681B6903F00803082B22D17B680D
:1026DC001B68DB6803F00803082B1BD17B681B68A5
:1026EC006FF008021A617B6804221A777B681B68FA
:1026FC00DB6903F00303002B03D0786800F060F96A
:10270C0005E0786800F053F9786800F062F97B68AE
:10271C0000221A777B681B681B6903F01003102BCF
:10272C0022D17B681B68DB6803F01003102B1BD1D4
:10273C007B681B686FF010021A617B6808221A779D
:10274C007B681B68DB6903F44073002B03D078684B
:10275C0000F036F905E0786800F029F9786800F0A7
:10276C0038F97B6800221A777B681B681B6903F0B9
:10277C000103012B0ED17B681B68DB6803F001039E
:10278C00012B07D17B681B686FF001021A61786816
:10279C00FEF710F87B681B681B6903F08003802B25
:1027AC000ED17B681B68DB6803F08003802B07D19C
:1027BC007B681B686FF080021A61786800F06BFA16
:1027CC007B681B681B6903F04003402B0ED17B68B0
:1027DC001B68DB6803F04003402B07D17B681B6848
:1027EC006FF040021A61786800F0FCF87B681B6897
:1027FC001B6903F02003202B0ED17B681B68DB6860
:10280C0003F02003202B07D17B681B686FF020029C
:10281C001A61786800F036FA00BF0837BD4680BDF3
:10282C0080B584B000AF786039600023FB737B689F
:10283C0093F83C30012B01D10223B4E07B680122D8
:10284C0083F83C207B68022283F83D207B681B6860
:10285C009B68BB60BB6823F07703BB60BB6823F449
:10286C007F43BB607B681B68BA689A603B681B68D7
:10287C00B3F5005F3ED0B3F5005F00F28780B3F58F
:10288C00805F00F08680B3F5805F7FD8702B1AD004
:10289C00702B7BD8602B50D0602B77D8502B3CD032
:1028AC00502B73D8402B58D0402B6FD8302B64D082
:1028BC00302B6BD8202B60D0202B67D8002B5CD012
:1028CC00102B5AD062E07B6818683B6899683B68AB
:1028DC005A683B68DB6800F05EF97B681B689B6894
:1028EC00BB60BB6843F07703BB607B681B68BA684E
:1028FC009A604FE07B6818683B6899683B685A6837
:10290C003B68DB6800F047F97B681B689A687B685A
:10291C001B6842F480429A603CE07B6818683B6814
:10292C0059683B68DB681A4600F0BEF87B681B6888
:10293C005021184600F015F92CE07B6818683B68AC
:10294C0059683B68DB681A4600F0DCF87B681B684A
:10295C006021184600F005F91CE07B6818683B689C
:10296C0059683B68DB681A4600F09EF87B681B6868
:10297C004021184600F0F5F80CE07B681A683B68BB
:10298C001B681946104600F0ECF803E00123FB73BA
:10299C0000E000BF7B68012283F83D207B680022A9
:1029AC0083F83C20FB7B18461037BD4680BD80B4B5
:1029BC0083B000AF786000BF0C37BD4680BC704759
:1029CC0080B483B000AF786000BF0C37BD4680BCCC
:1029DC00704780B483B000AF786000BF0C37BD4641
:1029EC0080BC704780B483B000AF786000BF0C37F8
:1029FC00BD4680BC7047000080B485B000AF7860E5
:102A0C0039607B681B68FB607B68254A934207D062
:102A1C007B68B3F1804F03D07B68224A934208D184
:102A2C00FB6823F07003FB603B685B68FA68134338
:102A3C00FB607B681A4A934207D07B68B3F1804FE6
:102A4C0003D07B68174A934208D1FB6823F4407388
:102A5C00FB603B68DB68FA681343FB60FB6823F0A0
:102A6C0080023B685B691343FB607B68FA681A6001
:102A7C003B689A687B68DA623B681A687B689A6282
:102A8C007B68074A934203D13B681A697B681A63D7
:102A9C007B6801225A6100BF1437BD4680BC704769
:102AAC00002C01400004004080B487B000AFF860F7
:102ABC00B9607A60FB681B6A7B61FB681B6A23F058
:102ACC000102FB681A62FB689B693B613B6923F05E
:102ADC00F0033B617B681B013A6913433B617B69E3
:102AEC0023F00A037B617A69BB6813437B61FB6843
:102AFC003A699A61FB687A691A6200BF1C37BD4655
:102B0C0080BC704780B487B000AFF860B9607A6061
:102B1C00FB681B6A7B61FB681B6A23F01002FB6875
:102B2C001A62FB689B693B613B6923F470433B6110
:102B3C007B681B033A6913433B617B6923F0A00359
:102B4C007B61BB681B017A6913437B61FB683A6943
:102B5C009A61FB687A691A6200BF1C37BD4680BC5B
:102B6C00704780B485B000AF786039607B689B6833
:102B7C00FB60FB6823F07003FB603A68FB6813434F
:102B8C0043F00703FB607B68FA689A6000BF143758
:102B9C00BD4680BC704780B487B000AFF860B960A8
:102BAC007A603B60FB689B687B617B6923F47F43A5
:102BBC007B613B681A027B681A43BB6813437A69D2
:102BCC0013437B61FB687A699A6000BF1C37BD4672
:102BDC0080BC704780B485B000AF786039607B688A
:102BEC0093F83C30012B01D1022341E07B68012298
:102BFC0083F83C207B68022283F83D207B681B68AD
:102C0C005B68FB607B681B689B68BB60FB6823F0A0
:102C1C007003FB603B681B68FA681343FB607B68BE
:102C2C001B68FA685A607B681B68144A934209D087
:102C3C007B681B68B3F1804F04D07B681B68104A1B
:102C4C0093420CD1BB6823F08003BB603B685B688C
:102C5C00BA681343BB607B681B68BA689A607B6870
:102C6C00012283F83D207B68002283F83C2000235E
:102C7C0018461437BD4680BC704700BF002C01407D
:102C8C000004004080B483B000AF786000BF0C3704
:102C9C00BD4680BC704780B483B000AF786000BF85
:102CAC000C37BD4680BC704770B500260C4D0D4CE2
:102CBC00641BA410A64209D100F022F800260A4D8C
:102CCC000A4C641BA410A64205D170BD55F8043BF8
:102CDC0098470136EEE755F8043B98470136F2E782
:102CEC00482D0008482D0008482D00084C2D0008E0
:102CFC0003460244934200D1704703F8011BF9E7E5
:102D0C00F8B500BFF8BC08BC9E467047F8B500BFCC
:082D1C00F8BC08BC9E4670479C
:102D24000000000000000000010203040607080977
:102D340002030405060708090A0B0C0D0E0F1010F8
:042D44000102000088
:042D4800310100084D
:042D4C000D0100086D
:102D5000010000000100000001000000050000006B
:102D60000200000003000000010000000024F40045
:0C2D700001000000100000000100000045
:040000050800167D5C
:00000001FF
