:020000040800F2
:10000000002800204D220008611800086718000829
:100010006D18000873180008791800080000000027
:100020000000000000000000000000007F18000831
:100030008B1800080000000097180008A31800089B
:1000400095220008952200089522000895220008B4
:1000500095220008952200089522000895220008A4
:100060009522000895220008952200089522000894
:100070009522000895220008952200089522000884
:100080009522000895220008952200089522000874
:100090009522000895220008952200089522000864
:1000A0009522000895220008952200089522000854
:1000B000B1180008952200080000000095220008F1
:1000C00095220008000000000000000095220008B2
:1000D00000000000952200089522000800000000A2
:1000E00095220008952200089522000800000000D3
:1000F0000000000000000000000000000000000000
:0C01000000000000000000005FF808F1A3
:1001100010B5054C237833B9044B13B10448AFF341
:1001200000800123237010BD380000200000000073
:10013000DC38000808B5034B1BB103490348AFF393
:10014000008008BD000000003C000020DC380008F2
:1001500081F0004102E000BF83F0004330B54FEA78
:1001600041044FEA430594EA050F08BF90EA020FE5
:100170001FBF54EA000C55EA020C7FEA645C7FEA78
:10018000655C00F0E2804FEA5454D4EB5555B8BF9B
:100190006D420CDD2C4480EA020281EA030382EA0C
:1001A000000083EA010180EA020281EA0303362D9E
:1001B00088BF30BD11F0004F4FEA01314FF4801C71
:1001C0004CEA113102D0404261EB410113F0004F83
:1001D0004FEA03334CEA133302D0524263EB43033A
:1001E00094EA050F00F0A780A4F10104D5F1200ED8
:1001F0000DDB02FA0EFC22FA05F2801841F1000133
:1002000003FA0EF2801843FA05F359410EE0A5F106
:1002100020050EF1200E012A03FA0EFC28BF4CF037
:10022000020C43FA05F3C01851EBE37101F00045ED
:1002300007D54FF0000EDCF1000C7EEB00006EEBFA
:100240000101B1F5801F1BD3B1F5001F0CD3490884
:100250005FEA30004FEA3C0C04F101044FEA4452DB
:1002600012F5800F80F09A80BCF1004F08BF5FEA62
:10027000500C50F1000041EB045141EA050130BD42
:100280005FEA4C0C404141EB0101013C28BFB1F554
:10029000801FE9D291F0000F04BF01460020B1FA9F
:1002A00081F308BF2033A3F10B03B3F120020CDA72
:1002B0000C3208DD02F1140CC2F10C0201FA0CF050
:1002C00021FA02F10CE002F11402D8BFC2F1200CB5
:1002D00001FA02F120FA0CFCDCBF41EA0C0190406B
:1002E000E41AA2BF01EB0451294330BD6FEA0404B4
:1002F0001F3C1CDA0C340EDC04F11404C4F120029F
:1003000020FA04F001FA02F340EA030021FA04F3B0
:1003100045EA030130BDC4F10C04C4F1200220FA07
:1003200002F001FA04F340EA0300294630BD21FA45
:1003300004F0294630BD94F0000F83F4801306BF0B
:1003400081F480110134013D4EE77FEA645C18BFFF
:100350007FEA655C29D094EA050F08BF90EA020F96
:1003600005D054EA000C04BF1946104630BD91EA8E
:10037000030F1EBF0021002030BD5FEA545C05D191
:100380004000494128BF41F0004130BD14F58004D0
:100390003CBF01F5801130BD01F0004545F0FE4144
:1003A00041F470014FF0000030BD7FEA645C1ABF79
:1003B000194610467FEA655C1CBF0B46024650EAB0
:1003C000013406BF52EA033591EA030F41F40021DC
:1003D00030BD00BF90F0000F04BF0021704730B562
:1003E0004FF4806404F132044FF000054FF0000137
:1003F00050E700BF90F0000F04BF0021704730B5F8
:100400004FF4806404F1320410F0004548BF4042CC
:100410004FF000013EE700BF42004FEAE2014FEA21
:1004200031014FEA02701FBF12F07F4393F07F4FFC
:1004300081F06051704732F07F4208BF704793F0FF
:100440007F4F04BF41F40021704730B54FF4607412
:1004500001F0004521F000411CE700BF50EA010215
:1004600008BF704730B54FF000050AE050EA0102BE
:1004700008BF704730B511F0004502D5404261EB2E
:1004800041014FF4806404F132045FEA915C3FF46F
:10049000D8AE4FF003025FEADC0C18BF03325FEA0C
:1004A000DC0C18BF033202EBDC02C2F1200300FABD
:1004B00003FC20FA02F001FA03FE40EA0E0021FAE2
:1004C00002F11444BDE600BF70B54FF0FF0C4CF4D0
:1004D000E06C1CEA11541DBF1CEA135594EA0C0F82
:1004E00095EA0C0F00F0DEF82C4481EA030621EABD
:1004F0004C5123EA4C5350EA013518BF52EA0335F8
:1005000041F4801143F4801338D0A0FB02CE4FF0A9
:100510000005E1FB02E506F00042E0FB03E54FF0D9
:100520000006E1FB03569CF0000F18BF4EF0010ED1
:10053000A4F1FF04B6F5007F64F5407404D25FEACD
:100540004E0E6D4146EB060642EAC62141EA555180
:100550004FEAC52040EA5E504FEACE2EB4F1FD0CC2
:1005600088BFBCF5E06F1ED8BEF1004F08BF5FEA40
:10057000500E50F1000041EB045170BD06F00046F2
:1005800046EA010140EA020081EA0301B4EB5C049F
:10059000C2BFD4EB0C0541EA045170BD41F4801197
:1005A0004FF0000E013C00F3AB8014F1360FDEBFBC
:1005B000002001F0004170BDC4F10004203C35DA98
:1005C0000C341BDC04F11404C4F1200500FA05F31B
:1005D00020FA04F001FA05F240EA020001F00042BC
:1005E00021F0004110EBD37021FA04F642EB060132
:1005F0005EEA430E08BF20EAD37070BDC4F10C045C
:10060000C4F1200500FA04F320FA05F001FA04F21F
:1006100040EA020001F0004110EBD37041F100010B
:100620005EEA430E08BF20EAD37070BDC4F1200516
:1006300000FA05F24EEA020E20FA04F301FA05F27E
:1006400043EA020321FA04F001F0004121FA04F226
:1006500020EA020000EBD3705EEA430E08BF20EAF6
:10066000D37070BD94F0000F0FD101F00046400030
:1006700041EB010111F4801F08BF013CF7D041EAB2
:10068000060195F0000F18BF704703F000465200B6
:1006900043EB030313F4801F08BF013DF7D043EA87
:1006A0000603704794EA0C0F0CEA135518BF95EA3D
:1006B0000C0F0CD050EA410618BF52EA4306D1D1C4
:1006C00081EA030101F000414FF0000070BD50EAE3
:1006D000410606BF1046194652EA430619D094EA6D
:1006E0000C0F02D150EA013613D195EA0C0F05D157
:1006F00052EA03361CBF104619460AD181EA0301AB
:1007000001F0004141F0FE4141F470014FF0000062
:1007100070BD41F0FE4141F4780170BD70B54FF0FD
:10072000FF0C4CF4E06C1CEA11541DBF1CEA13557D
:1007300094EA0C0F95EA0C0F00F0A7F8A4EB05045F
:1007400081EA030E52EA03354FEA013100F0888056
:100750004FEA03334FF0805545EA131343EA12631F
:100760004FEA022245EA111545EA10654FEA0026D4
:100770000EF000419D4208BF964244F1FD0404F58D
:10078000407402D25B084FEA3202B61A65EB0305E9
:100790005B084FEA32024FF480104FF4002CB6EBA6
:1007A000020E75EB030E22BFB61A754640EA0C0026
:1007B0005B084FEA3202B6EB020E75EB030E22BF66
:1007C000B61A754640EA5C005B084FEA3202B6EBA7
:1007D000020E75EB030E22BFB61A754640EA9C0066
:1007E0005B084FEA3202B6EB020E75EB030E22BF36
:1007F000B61A754640EADC0055EA060E18D04FEAF4
:10080000051545EA16754FEA06164FEAC30343EA93
:1008100052734FEAC2025FEA1C1CC0D111F4801F60
:100820000BD141EA00014FF000004FF0004CB6E759
:1008300011F4801F04BF01430020B4F1FD0C88BFF8
:10084000BCF5E06F3FF6AFAEB5EB030C04BFB6EB03
:10085000020C5FEA500C50F1000041EB045170BDF6
:100860000EF0004E4EEA113114EB5C04C2BFD4EB23
:100870000C0541EA045170BD41F480114FF0000EA7
:10088000013C90E645EA060E8DE60CEA135594EA23
:100890000C0F08BF95EA0C0F3FF43BAF94EA0C0F26
:1008A0000AD150EA01347FF434AF95EA0C0F7FF49B
:1008B00025AF104619462CE795EA0C0F06D152EAEF
:1008C00003353FF4FDAE1046194622E750EA4106D3
:1008D00018BF52EA43067FF4C5AE50EA41047FF4E4
:1008E0000DAF52EA43057FF4EBAE12E74FEA410247
:1008F00012F5001215D211D56FF47873B3EB625272
:1009000012D94FEAC12343F0004343EA505311F098
:10091000004F23FA02F018BF404270474FF000002A
:10092000704750EA013005D111F0004008BF6FF068
:10093000004070474FF00000704700BF80B500AF27
:10094000A44B1B68013B072B00F21B8201A252F84B
:1009500023F000BF75090008830D0008830D00080F
:10096000830D0008EB090008150B0008090C0008AE
:10097000C50C0008984B1B68642202FB03F3184661
:10098000FFF738FD954BD3E90023FFF79DFD0246A5
:100990000B4610461946FFF7A9FF0346184600F01C
:1009A0004FFE8E4BD3E900014FF000028C4BFFF756
:1009B0008BFD02460B4610461946FFF797FF03468C
:1009C000184600F051FE022001F0EAFA032001F07F
:1009D00043FB844B1B68844A13607F4B1B68834A2C
:1009E00013607C4B05221A60D4E1002000F08AFAE3
:1009F0000346002B30D0774B02221A60794B1B68DC
:100A00007B4A1360022001F0CBFA022001F024FBA4
:100A1000724BD3E900014FF00002764BFFF754FD13
:100A200002460B4610461946FFF760FF034618467C
:100A300000F006FE694BD3E900014FF000026E4B57
:100A4000FFF742FD02460B4610461946FFF74EFFE0
:100A50000346184600F01CFE684B1B68012B37D17B
:100A60005C4B06221A60042001F0F6FA644B1B6806
:100A70005E4A1360624B1B68642202FB03F3184654
:100A8000FFF7B8FC554BD3E90023FFF71DFD0246E5
:100A90000B4610461946FFF729FF0346184600F09B
:100AA000CFFD4E4BD3E900014FF000024C4BFFF756
:100AB0000BFD02460B4610461946FFF717FF03468B
:100AC000184600F0D1FD484B1B68013B464A1360B5
:100AD0004C4B1B68012B40F05681434B1B68013B7C
:100AE000414A1360414B1B68013B404A13603B4B3A
:100AF000D3E900014FF00002394BFFF7E5FC024655
:100B00000B4610461946FFF7F1FE0346184600F063
:100B1000ABFD38E1394B1B68012B39D12D4B072236
:100B20001A602D4B1B68304A13602E4B1B682F4AEE
:100B30001360032001F034FA022001F08DFA264BF5
:100B40001B68642202FB03F31846FFF753FC234B98
:100B5000D3E90023FFF7B8FC02460B4610461946BE
:100B6000FFF7C4FE0346184600F06AFD1B4BD3E9AD
:100B700000014FF000021A4BFFF7A6FC02460B469D
:100B800010461946FFF7B2FE0346184600F06CFD0A
:100B90001C4B1B68012B40F0F880134B1B68013B7A
:100BA000114A1360114B1B68013B104A13600B4B39
:100BB000D3E900014FF00002094BFFF785FC024624
:100BC0000B4610461946FFF791FE0346184600F003
:100BD0004BFDDAE00000002014000020200000207F
:100BE000000059400C0000200400002008000020F4
:100BF0001800002000004940000039407400002027
:100C0000100000207C000020634B1B68012B37D1B3
:100C1000624B08221A60042001F0C2F9604B1B6885
:100C2000642202FB03F31846FFF7E4FB5D4BD3E9B4
:100C30000023FFF749FC02460B4610461946FFF712
:100C400055FE0346184600F0FBFC564BD3E9000165
:100C50004FF00002544BFFF737FC02460B4610469C
:100C60001946FFF743FE0346184600F0FDFC4C4BC7
:100C70001B684E4A13604E4B1B68013B4C4A136085
:100C80004C4B1B68012B40F08280484B1B68013B9A
:100C9000464A1360464B1B68013B454A1360414B73
:100CA000D3E900014FF000023F4BFFF70DFC024675
:100CB0000B4610461946FFF719FE0346184600F08A
:100CC000D3FC64E0344B1B68012B39D1334B052234
:100CD0001A60394B1B68354A1360384B1B68344A1D
:100CE0001360022001F05CF9032001F0B5F92C4BF0
:100CF0001B68642202FB03F31846FFF77BFB294BBA
:100D0000D3E90023FFF7E0FB02460B4610461946E5
:100D1000FFF7ECFD0346184600F092FC214BD3E9A7
:100D200000014FF00002204BFFF7CEFB02460B46BE
:100D300010461946FFF7DAFD0346184600F094FC0A
:100D40001C4B1B68012B24D1184B1B68013B174A15
:100D50001360174B1B68013B154A1360114BD3E915
:100D600000014FF00002104BFFF7AEFB02460B46AE
:100D700010461946FFF7BAFD0346184600F074FC0A
:100D800007E000BF06E000BF04E000BF02E000BFD4
:100D900000E000BF00BF80BD740000200000002004
:100DA0001000002020000020000059400400002016
:100DB000080000207C0000200C000020140000200F
:100DC00080B500AF254B1B68042B02DC022B22DA16
:100DD0003FE0053B032B3CD8214B1B68012B3AD14C
:100DE000204B1B68204A12681146184601F0C4F9CE
:100DF0001E4BD3E900014FF000021D4BFFF764FBCF
:100E000002460B4610461946FFF770FD034618468A
:100E100000F052FC1FE0124B1B68012B19D1154B3F
:100E20001B680E4A12681146184601F0A5F90F4BCF
:100E3000D3E900014FF000020D4BFFF745FB0246DE
:100E40000B4610461946FFF751FD0346184600F0C1
:100E500033FC00BF00E000BF00BF80BD00000020E9
:100E60008C0000200400002008000020200000204A
:100E70000000494018000020B0B582B000AF786093
:100E800039607B6801331846FFF7A4FA18A3D3E949
:100E90000023FFF743FC02460B4614461D46386804
:100EA000FFF798FA02460B4620462946FFF70CFB4F
:100EB00002460B46104619464FF000020E4BFFF754
:100EC00003FB02460B460D49C1E900230B4BD3E956
:100ED00000234FF000000A49FFF720FC02460B46B2
:100EE0000649C1E9002300BF0837BD46B0BD00BFB9
:100EF0000000000080845E4100408F402000002000
:100F00000000244080B483B000AF7860094A7B6859
:100F100052F82330012B06D1064A7B68002142F8A3
:100F20002310012300E0002318460C37BD4680BC87
:100F3000704700BF9800002090B583B000AF002339
:100F4000FB7187E0FA79FB794749895C474AD154BC
:100F5000FA79FB794649895C434AD154FB79022BE3
:100F60001CD0022B25DC002B02D0012B0BD020E063
:100F7000FC794FF400613F4801F078FC03461A46C3
:100F80003B4B1A5516E0FC794FF48051394801F07B
:100F90006DFC03461A46364B1A550BE0FC794FF4AC
:100FA0000051344801F062FC03461A46304B1A5592
:100FB00000E000BFFB792E4AD25CFB792A49CB5C6A
:100FC0009A421CD1FB792A4AD25CFB792749CB5C37
:100FD0009A4214D1FB79284AD35C012B09D1FB79C1
:100FE000234AD35C002B04D1FB79244A012142F827
:100FF0002310FA79FB791E49895C1F4AD154FB7989
:101000001D4AD35C002B14D1FB791D4A32F81330F2
:10101000632B09D8FB791A4A32F81320013291B2B6
:10102000174A22F8131012E0FB79164A0121D15415
:101030000DE0FB79114A002142F82310FB79104A98
:10104000002122F81310FB790E4A0021D154FB79BC
:101050000133FB71FB79022B7FF674AF00BF00BF39
:101060000C37BD4690BD00BF5C0000206000002032
:101070005800002000080140540000209800002083
:10108000680000206400002080B582B000AF01F04D
:1010900003F900F035F800F0BDF800F06DF81448E1
:1010A00002F058F8124B5B687B60114BDB683B60C9
:1010B00039687868FFF7E0FE0E4B01221A600E4B8C
:1010C000D3E900014FF000020C4BFFF7FDF9024697
:1010D0000B4610461946FFF709FC0346184600F078
:1010E000EBFAFFF72BFC00F00BF9FFF769FEF8E7CE
:1010F000A400002000000020200000200000494043
:1011000080B590B000AF07F11803282200211846DF
:1011100002F0DCFB3B1D00221A605A609A60DA6024
:101120001A610223BB610123BB621023FB6200230F
:101130007B6307F11803184601F0E0FB0346002B20
:1011400001D000F0D7F80F237B600023BB600023A1
:10115000FB6000233B6100237B613B1D002118469F
:1011600001F04CFE0346002B01D000F0C3F800BF95
:101170004037BD4680BD000080B586B000AF07F1A6
:10118000080300221A605A609A60DA603B46002227
:101190001A605A601E4B4FF080421A601C4B40F29E
:1011A0001F325A601A4B00229A60194B4FF47A7220
:1011B000DA60174B00221A61154B00229A6114481D
:1011C00001F078FF0346002B01D000F093F84FF4B4
:1011D0008053BB6007F1080319460D4802F00EF971
:1011E0000346002B01D000F085F800233B6000236C
:1011F0007B603B461946064802F0DAFA0346002BAC
:1012000001D000F077F800BF1837BD4680BD00BFA1
:10121000A400002080B586B000AF07F108030022CB
:101220001A605A609A60DA60294B9B69284A43F039
:1012300004039361264B9B6903F004037B607B6886
:10124000234B9B69224A43F008039361204B9B691F
:1012500003F008033B603B68002240F2FE711D482A
:1012600001F01BFB00224FF67F611B4801F015FBCC
:1012700040F2FE73BB600123FB6000233B6102234D
:101280007B6107F108031946124801F075F94FF622
:101290007F63BB600123FB6000233B6102237B6112
:1012A00007F1080319460C4801F066F94FF4605342
:1012B000BB600023FB6001233B6107F10803194673
:1012C000044801F059F900BF1837BD4680BD00BF82
:1012D0000010024000080140000C014080B582B0BF
:1012E00000AF786000F0FCF9FFF726FE00BF08377A
:1012F000BD4680BD80B400AF72B600BFFEE70000FF
:1013000080B500AFA64B1B68042B00F01981042B9D
:1013100000F38481022B03D0032B00F095807DE144
:10132000A04B1B68012B14D1022000F0F1FE9E4B54
:10133000D3E900014FF000029C4BFFF7C5F80246CD
:101340000B4610461946FFF7D1FA0346184600F03F
:1013500077F90020FFF7D6FD0346002B1ED0904BF7
:1013600003221A60924B1B68924A1360042000F01B
:1013700017FE042000F070FE8B4BD3E900014FF004
:1013800000028A4BFFF7A0F802460B4610461946AA
:10139000FFF7ACFA0346184600F052F90120FFF7B8
:1013A000B1FD0346002B0CD0824B1B68632B03DD81
:1013B000804B01221A6004E07E4B1B6801337D4A9A
:1013C00013600220FFF79EFD0346002B00F02881EA
:1013D000784B1B68784A1360784B1A68744B1B680B
:1013E0001A44754B1B689A4207DA734B1A68704BA4
:1013F0001B68D31A714A136012E1704B1A686C4B68
:101400001B681A446C4B1B689A4240F309816A4B73
:101410001B68DA0F13445B101A46684B1A60664B60
:101420001B68DA0F13445B101A46614B1A60624B5B
:101430001B6803F00103002B00F0F2805F4B1B6878
:1014400001335E4A1360EBE0564B1B68012B14D14D
:10145000042000F05DFE544BD3E900014FF0000280
:10146000524BFFF731F802460B4610461946FFF77C
:101470003DFA0346184600F0E3F80020FFF742FD6E
:101480000346002B1ED0464B04221A604B4B1B68B0
:10149000484A1360032000F083FD032000F0DCFDC8
:1014A000414BD3E900014FF00002404BFFF70CF82D
:1014B00002460B4610461946FFF718FA034618462F
:1014C00000F0BEF80120FFF71DFD0346002B0CD0F5
:1014D000384B1B68632B03DD364B01221A6004E096
:1014E000344B1B680133334A13600220FFF70AFDB7
:1014F0000346002B00F096802E4B1B682C4A13608D
:101500002E4B1A682A4B1B681A442B4B1B689A42B5
:1015100000F08880294B1A68254B1B681344264A23
:101520001360254B1B68632B7CDD234B63221A6001
:10153000214B1A681E4B1B68D31A204A136071E0B6
:10154000184B1B68012B14D1032000F0E1FD164B52
:10155000D3E900014FF00002144BFEF7B5FF02463D
:101560000B4610461946FFF7C1F90346184600F02E
:1015700067F80020FFF7C6FC0346002B02D0084B9B
:1015800001221A600120FFF7BDFC0346002B1CD08E
:10159000084B1B68632B13DD064B01221A6014E015
:1015A00000000020740000202000002000004940BE
:1015B00010000020180000200C0000201400002063
:1015C0001B4B1B6801331A4A13600220FFF79AFC79
:1015D0000346002B28D0164B1B68164A1360154B88
:1015E0001A68154B1B681A44144B1B689A421BD08F
:1015F000104B1A68104B1B681344104A13600F4BB2
:101600001B68632B10DD0D4B63221A600B4B1A68AD
:10161000084B1B68D31A084A136005E000BF04E0BA
:1016200000BF02E000BF00E000BF00BF80BD00BF00
:101630001800002014000020100000200C000020E2
:1016400080B483B000AF7860054A7B681360054BB7
:1016500000221A6000BF0C37BD4680BC704700BF37
:10166000700000207400002080B483B000AF786068
:10167000054A7B681360054B00221A6000BF0C37D7
:10168000BD4680BC704700BF780000207C00002071
:1016900080B483B000AF7860054A7B681360054B67
:1016A00000221A6000BF0C37BD4680BC704700BFE7
:1016B000800000208400002080B483B000AF7860F8
:1016C000054A7B681360054B00221A6000BF0C3787
:1016D000BD4680BC704700BF880000208C00002001
:1016E00080B400AF294B1B68002B0BDD274B1B6818
:1016F000013B264A1360254B1B68002B02DC244B60
:1017000001221A60234B1B68002B0BDD214B1B6849
:10171000013B204A13601F4B1B68002B02DC1E4B51
:1017200001221A601D4B1B68002B0BDD1B4B1B6835
:10173000013B1A4A1360194B1B68002B02DC184B43
:1017400001221A60174B1B68002B0BDD154B1B6821
:10175000013B144A1360134B1B68002B02DC124B35
:1017600001221A60114B1B68002B0BDD0F4B1B680D
:10177000013B0E4A13600D4B1B68002B02DC0C4B27
:1017800001221A6000BFBD4680BC70477000002077
:1017900074000020780000207C00002080000020E1
:1017A00084000020880000208C0000209000002091
:1017B0009400002080B485B000AF154B9B69144A9B
:1017C00043F001039361124B9B6903F00103BB607B
:1017D000BB680F4BDB690E4A43F08053D3610C4B5F
:1017E000DB6903F080537B607B680A4B5B68FB60BE
:1017F000FB6823F0E063FB60FB6843F08063FB6001
:10180000044AFB68536000BF1437BD4680BC704774
:10181000001002400000014080B584B000AF786045
:101820007B681B68B3F1804F13D10C4BDB690B4A0B
:1018300043F00103D361094BDB6903F00103FB6053
:10184000FB68002200211C2000F05FFE1C2000F03D
:1018500078FE00BF1037BD4680BD00BF00100240BB
:1018600080B400AFFEE780B400AFFEE780B400AF05
:10187000FEE780B400AFFEE780B400AFFEE780B4BF
:1018800000AF00BFBD4680BC704780B400AF00BF52
:10189000BD4680BC704780B400AF00BFBD4680BC71
:1018A000704780B500AF00F03DFD00BF80BD000077
:1018B00080B500AF024801F099FC00BF80BD00BFB9
:1018C000A400002080B400AF00BFBD4680BC7047BC
:1018D00080B582B000AF78607B68002B23D10122F5
:1018E0000121C24800F0D9FF00220221BF4800F0C8
:1018F000D4FF00220421BD4800F0CFFF00220821C0
:10190000BA4800F0CAFF00221021B84800F0C5FF15
:1019100000222021B54800F0C0FF00224021B3483A
:1019200000F0BBFF5DE17B68012B23D10122012187
:10193000AE4800F0B2FF01220221AC4800F0ADFF3A
:1019400001220421A94800F0A8FF01220821A7488C
:1019500000F0A3FF01224021A44800F09EFF0022D6
:101960001021A24800F099FF002220219F4800F09A
:1019700094FF36E17B68022B23D1012202219B4890
:1019800000F08BFF01221021984800F086FF002212
:101990000121964800F081FF00220421934800F0C5
:1019A0007CFF00220821914800F077FF00222021CF
:1019B0008E4800F072FF002240218C4800F06DFF3D
:1019C0000FE17B68032B23D101220221874800F01D
:1019D00064FF01220421854800F05FFF00220121FD
:1019E000824800F05AFF00220821804800F055FF8D
:1019F000002210217D4800F050FF002220217B486A
:101A000000F04BFF00224021784800F046FFE8E05C
:101A10007B68042B23D101220421744800F03DFF90
:101A200001220821714800F038FF012240216F484F
:101A300000F033FF002201216C4800F02EFF00224D
:101A400002216A4800F029FF00221021674800F0B7
:101A500024FF00222021654800F01FFFC1E07B68C1
:101A6000052B23D101220421604800F016FF01223A
:101A700020215E4800F011FF002201215B4800F0A8
:101A80000CFF00220221594800F007FF0022082124
:101A9000564800F002FF00221021544800F0FDFEDD
:101AA00000224021514800F0F8FE9AE07B68062BA6
:101AB00023D1012220214D4800F0EFFE0022012118
:101AC0004A4800F0EAFE00220221484800F0E5FE04
:101AD00000220421454800F0E0FE0022082143488E
:101AE00000F0DBFE00221021404800F0D6FE00226C
:101AF00040213E4800F0D1FE73E07B68072B23D1E4
:101B000001220121394800F0C8FE01220221374894
:101B100000F0C3FE01220421344800F0BEFE012281
:101B20000821324800F0B9FE002210212F4800F0B1
:101B3000B4FE002220212D4800F0AFFE00224021FB
:101B40002A4800F0AAFE4CE07B68082B23D1002233
:101B50000121264800F0A1FE00220221234800F0C6
:101B60009CFE00220421214800F097FE002208215B
:101B70001E4800F092FE002210211C4800F08DFE4D
:101B800000222021194800F088FE00224021174839
:101B900000F083FE25E07B68092B22D1012204217D
:101BA000124800F07AFE00220121104800F075FE74
:101BB000002202210D4800F070FE002208210B488F
:101BC00000F06BFE00221021084800F066FE0022A3
:101BD0002021064800F061FE00224021034800F069
:101BE0005CFE00BF0837BD4680BD00BF000C014051
:101BF00080B582B000AF78607B68002B2AD10122CB
:101C00004FF40071CB4800F048FE00224FF4806191
:101C1000C84800F042FE00224FF40061C54800F0C1
:101C20003CFE00224FF48051C24800F036FE0022F4
:101C30004FF40051BF4800F030FE00224FF48041C5
:101C4000BC4800F02AFE00224FF40041B94800F0E1
:101C500024FE9EE17B68012B2AD101224FF4007102
:101C6000B44800F01AFE01224FF48061B14800F040
:101C700014FE01224FF40061AE4800F00EFE012276
:101C80004FF48051AB4800F008FE01224FF40041B0
:101C9000A84800F002FE00224FF40051A54800F0D1
:101CA000FCFD00224FF48041A24800F0F6FD70E1F7
:101CB0007B68022B2AD101224FF480619D4800F0FD
:101CC000ECFD01224FF400519A4800F0E6FD00229D
:101CD0004FF40071974800F0E0FD00224FF40061DE
:101CE000944800F0DAFD00224FF48051914800F052
:101CF000D4FD00224FF480418E4800F0CEFD00223A
:101D00004FF400418B4800F0C8FD42E17B68032B93
:101D10002AD101224FF48061864800F0BEFD0122E5
:101D20004FF40061834800F0B8FD00224FF40071C9
:101D3000804800F0B2FD00224FF480517D4800F051
:101D4000ACFD00224FF400517A4800F0A6FD0022BD
:101D50004FF48041774800F0A0FD00224FF400418D
:101D6000744800F09AFD14E17B68042B2AD101220B
:101D70004FF400616F4800F090FD01224FF4805154
:101D80006C4800F08AFD01224FF40041694800F0E0
:101D900084FD00224FF40071664800F07EFD0022B1
:101DA0004FF48061634800F078FD00224FF4005149
:101DB000604800F072FD00224FF480415D4800F061
:101DC0006CFDE6E07B68052B2AD101224FF400610F
:101DD000584800F062FD01224FF48041554800F060
:101DE0005CFD00224FF40071524800F056FD0022C5
:101DF0004FF480614F4800F050FD00224FF48051B5
:101E00004C4800F04AFD00224FF40051494800F0D0
:101E100044FD00224FF40041464800F03EFDB8E08A
:101E20007B68062B2AD101224FF48041414800F003
:101E300034FD00224FF400713E4800F02EFD0022D8
:101E40004FF480613B4800F028FD00224FF4006110
:101E5000384800F022FD00224FF48051354800F050
:101E60001CFD00224FF40051324800F016FD002204
:101E70004FF400412F4800F010FD8AE07B68072BEB
:101E80002AD101224FF400712A4800F006FD0122F8
:101E90004FF48061274800F000FD01224FF40061FB
:101EA000244800F0FAFC01224FF48051214800F050
:101EB000F4FC00224FF400511E4800F0EEFC00221A
:101EC0004FF480411B4800F0E8FC00224FF4004131
:101ED000184800F0E2FC5CE07B68082B2CD1002263
:101EE0004FF40071134800F0D8FC00224FF48061D9
:101EF000104800F0D2FC00224FF400610D4800F0C1
:101F0000CCFC00224FF480510A4800F0C6FC0022AD
:101F10004FF40051074800F0C0FC00224FF480410C
:101F2000044800F0BAFC00224FF40041014800F0E0
:101F3000B4FC2EE0000C01407B68092B29D1012262
:101F40004FF40061154800F0A8FC00224FF4007126
:101F5000124800F0A2FC00224FF480610F4800F00C
:101F60009CFC00224FF480510C4800F096FC0022AB
:101F70004FF40051094800F090FC00224FF48041DA
:101F8000064800F08AFC00224FF40041034800F0AC
:101F900084FC00BF0837BD4680BD00BF000C014077
:101FA00080B582B000AF78607B68013B032B4BD8D3
:101FB00001A252F823F000BFC91F0008E91F000862
:101FC000292000080920000801220221214800F0F0
:101FD00064FC012204211F4800F05FFC012208215B
:101FE0001C4800F05AFC30E000220221194800F0A1
:101FF00054FC01220421174800F04FFC0122082163
:10200000144800F04AFC20E001220221114800F0AF
:1020100044FC002204210F4800F03FFC012208216B
:102020000C4800F03AFC10E001220221094800F0BF
:1020300034FC01220421074800F02FFC0022082173
:10204000044800F02AFC00E000BF00BF0837BD468E
:1020500080BD00BF0008014080B582B000AF78604D
:102060007B68013B032B4BD801A252F823F000BF41
:1020700081200008A1200008E1200008C1200008FC
:1020800001221021214800F008FC012220211F48D4
:1020900000F003FC012240211C4800F0FEFB30E070
:1020A00000221021194800F0F8FB012220211748D6
:1020B00000F0F3FB01224021144800F0EEFB20E089
:1020C00001221021114800F0E8FB002220210F48D6
:1020D00000F0E3FB012240210C4800F0DEFB10E0A1
:1020E00001221021094800F0D8FB012220210748D5
:1020F00000F0D3FB00224021044800F0CEFB00E0BA
:1021000000BF00BF0837BD4680BD00BF00080140CA
:1021100080B582B000AF78607B68042B1BD07B68F1
:10212000042B21DC7B68022B03D07B68032B09D0B6
:102130001AE002210F4800F0C8FB10210D4800F002
:10214000C4FB12E008210B4800F0BFFB4021094806
:1021500000F0BBFB09E00421064800F0B6FB20219B
:10216000044800F0B2FB00E000BF00BF0837BD46E6
:1021700080BD00BF0008014080B586B000AF786028
:1021800039607B682E4A82FB03129210DB17D31A48
:102190007B617A682A4B83FB02139910D317C91A03
:1021A0000B469B000B445B00D31A3B613B68244AFF
:1021B00082FB03129210DB17D31AFB603A68204BA4
:1021C00083FB02139910D317C91A0B469B000B44CB
:1021D0005B00D31ABB601B4B1B68012B02D0022B88
:1021E00015D029E001228021174800F056FB00227B
:1021F0004FF48071144800F050FB3869FFF768FB1A
:10220000B868FFF7F5FC0F4B02221A6014E00022B9
:1022100080210D4800F041FB01224FF480710A48F3
:1022200000F03BFB7869FFF753FBF868FFF7E0FC31
:10223000044B01221A6000BF00BF1837BD4680BDA5
:10224000676666662C00002000080140FFF73AFB35
:102250000B480C490C4A002302E0D458C450043304
:10226000C4188C42F9D3094A094C002301E01360D9
:102270000432A242FBD301F005FBFEF705FF7047D5
:10228000000000203800002020390008380000201D
:10229000F0000020FEE7000080B500AF084B1B688F
:1022A000074A43F010031360032000F023F90F20C6
:1022B00000F008F8FFF77EFA0023184680BD00BF43
:1022C0000020024080B582B000AF7860124B1A68DF
:1022D000124B1B7819464FF47A73B3FBF1F3B2FB40
:1022E000F3F3184600F03BF90346002B01D001231D
:1022F0000EE07B680F2B0AD8002279684FF0FF3080
:1023000000F003F9064A7B681360002300E0012314
:1023100018460837BD4680BD280000203400002044
:102320003000002080B400AF054B1B781A46054BE7
:102330001B681344034A136000BFBD4680BC70474E
:1023400034000020EC00002080B400AF024B1B687A
:102350001846BD4680BC7047EC00002080B485B0B4
:1023600000AF78607B6803F00703FB600C4BDB6811
:10237000BB60BA684FF6FF031340BB60FB681A02EC
:10238000BB68134343F0BF6343F40033BB60044AAC
:10239000BB68D36000BF1437BD4680BC704700BF28
:1023A00000ED00E080B400AF044BDB681B0A03F0D3
:1023B00007031846BD4680BC704700BF00ED00E033
:1023C00080B483B000AF0346FB7197F90730002B50
:1023D0000BDBFB7903F01F02064997F907305B0915
:1023E000012000FA02F241F8232000BF0C37BD465D
:1023F00080BC704700E100E080B483B000AF0346CA
:102400003960FB7197F90730002B0ADB3B68DAB2C1
:102410000C4997F907301201D2B20B4483F800231C
:102420000AE03B68DAB20849FB7903F00F03043B8A
:102430001201D2B20B441A7600BF0C37BD4680BCE5
:10244000704700BF00E100E000ED00E080B489B01B
:1024500000AFF860B9607A60FB6803F00703FB61C6
:10246000FB69C3F10703042B28BF0423BB61FB698D
:102470000433062B02D9FB69033B00E000237B6198
:102480004FF0FF32BB6902FA03F3DA43BB681A402C
:102490007B699A404FF0FF317B6901FA03F3D9431E
:1024A0007B680B40134318462437BD4680BC7047F9
:1024B00080B582B000AF78607B68013BB3F1807F6C
:1024C00001D301230FE00A4A7B68013B53600F21CF
:1024D0004FF0FF30FFF790FF054B00229A60044B4E
:1024E00007221A60002318460837BD4680BD00BF8A
:1024F00010E000E080B582B000AF78607868FFF748
:102500002DFF00BF0837BD4680BD80B586B000AF47
:102510000346B9607A60FB7300237B61FFF742FFDB
:1025200078617A68B9687869FFF790FF024697F991
:102530000F3011461846FFF75FFF00BF1837BD4642
:1025400080BD80B582B000AF0346FB7197F90730BC
:102550001846FFF735FF00BF0837BD4680BD80B580
:1025600082B000AF78607868FFF7A2FF0346184694
:102570000837BD4680BD000080B48BB000AF7860E6
:10258000396000237B6200233B6248E101227B6AC1
:1025900002FA03F3FB613B681B68FA691340BB61F5
:1025A000BA69FB699A4240F037813B685B68A34A8D
:1025B00093425ED0A14A934275D8A14A934258D023
:1025C0009F4A93426FD89F4A934252D09D4A93426A
:1025D00069D89D4A93424CD09B4A934263D89B4A08
:1025E000934246D0994A93425DD8122B2AD8122B97
:1025F00059D801A252F823F0732600084D2600088E
:102600005F260008A1260008A7260008A7260008C4
:10261000A7260008A7260008A7260008A726000866
:10262000A7260008A7260008A7260008A726000856
:10263000A7260008A7260008A72600085526000898
:1026400069260008824A934213D02CE03B68DB687D
:102650003B6229E03B68DB6804333B6224E03B6873
:10266000DB6808333B621FE03B68DB680C333B628E
:102670001AE03B689B68002B02D104233B6213E005
:102680003B689B68012B05D108233B627B68FA6994
:102690001A6109E008233B627B68FA695A6103E02A
:1026A00000233B6200E000BFBB69FF2B01D87B68C1
:1026B00001E07B6804337B61BB69FF2B02D87B6A36
:1026C0009B0002E07B6A083B9B003B617B691A68C8
:1026D0000F213B6901FA03F3DB431A40396A3B6976
:1026E00001FA03F31A437B691A603B685B6803F0E5
:1026F0008053002B00F09080564B9B69554A43F065
:1027000001039361534B9B6903F00103BB60BB68FA
:10271000514A7B6A9B08023352F82330FB607B6A84
:1027200003F003039B000F2202FA03F3DB43FA6872
:102730001340FB607B68494A93420DD07B68484A4E
:10274000934207D07B68474A934201D1022304E0B9
:10275000032302E0012300E000237A6A02F003026F
:1027600092009340FA681343FB603B497B6A9B08E5
:102770000233FA6841F823203B685B6803F4801356
:10278000002B06D0384B9A683749BB6913438B60DE
:1027900006E0354B9A68BB69DB43334913408B60D5
:1027A0003B685B6803F40013002B06D02E4BDA68FD
:1027B0002D49BB691343CB6006E02B4BDA68BB693C
:1027C000DB4329491340CB603B685B6803F400336B
:1027D000002B06D0244B5A682349BB6913434B6036
:1027E00006E0214B5A68BB69DB431F4913404B602D
:1027F0003B685B6803F48033002B06D01A4B1A68E1
:102800001949BB6913430B6006E0174B1A68BB6993
:10281000DB43154913400B607B6A01337B623B68E5
:102820001A687B6A22FA03F3002B7FF4AFAE00BF75
:1028300000BF2C37BD4680BC704700BF000032107F
:1028400000003110000022100000211000001210C2
:10285000000011100010024000000140000801407B
:10286000000C0140001001400004014080B485B01C
:1028700000AF78600B467B807B689A687B8813404A
:10288000002B02D00123FB7301E00023FB73FB7BD1
:1028900018461437BD4680BC704780B483B000AF83
:1028A00078600B467B8013467B707B78002B03D0CF
:1028B0007A887B681A6103E07B881A047B681A6156
:1028C00000BF0C37BD4680BC704780B485B000AFF8
:1028D00078600B467B807B68DB68FB607A88FB68EE
:1028E00013401A04FB68D9437B880B401A437B686A
:1028F0001A6100BF1437BD4680BC704780B586B0F2
:1029000000AF78607B68002B01D101236CE27B680B
:102910001B6803F00103002B00F08780924B5B687B
:1029200003F00C03042B0CD08F4B5B6803F00C03FB
:10293000082B12D18C4B5B6803F48033B3F5803FD6
:102940000BD1894B1B6803F40033002B6CD07B68E0
:102950005B68002B68D1012346E27B685B68B3F5B6
:10296000803F06D1804B1B687F4A43F4803313605D
:102970002EE07B685B68002B0CD17B4B1B687A4A8E
:1029800023F480331360784B1B68774A23F4802349
:1029900013601DE07B685B68B3F5A02F0CD1724B10
:1029A0001B68714A43F4802313606F4B1B686E4AA7
:1029B00043F4803313600BE06B4B1B686A4A23F4CB
:1029C00080331360684B1B68674A23F480231360CD
:1029D0007B685B68002B13D0FFF7B6FC386108E01A
:1029E000FFF7B2FC02463B69D31A642B01D90323DB
:1029F000FAE15D4B1B6803F40033002BF0D014E0C8
:102A0000FFF7A2FC386108E0FFF79EFC02463B6935
:102A1000D31A642B01D90323E6E1534B1B6803F45B
:102A20000033002BF0D100E000BF7B681B6803F08F
:102A30000203002B63D04C4B5B6803F00C03002BAC
:102A40000BD0494B5B6803F00C03082B1CD1464BA1
:102A50005B6803F48033002B16D1434B1B6803F0F3
:102A60000203002B05D07B681B69012B01D00123D9
:102A7000BAE13D4B1B6823F0F8027B685B69DB0021
:102A8000394913430B603AE07B681B69002B20D067
:102A9000364B01221A60FFF757FC386108E0FFF758
:102AA00053FC02463B69D31A022B01D903239BE155
:102AB0002D4B1B6803F00203002BF0D02A4B1B6840
:102AC00023F0F8027B685B69DB00274913430B6046
:102AD00015E0264B00221A60FFF736FC386108E04B
:102AE000FFF732FC02463B69D31A022B01D90323BC
:102AF0007AE11D4B1B6803F00203002BF0D17B68C9
:102B00001B6803F00803002B3AD07B689B69002BFD
:102B100019D0174B01221A60FFF716FC386108E044
:102B2000FFF712FC02463B69D31A022B01D903239B
:102B30005AE10D4B5B6A03F00203002BF0D0012039
:102B400000F09AFA1CE00A4B00221A60FFF7FCFB27
:102B500038610FE0FFF7F8FB02463B69D31A022BFE
:102B600008D9032340E100BF0010024000004242A8
:102B7000800442429E4B5B6A03F00203002BE9D1C2
:102B80007B681B6803F00403002B00F0A680002381
:102B9000FB75974BDB6903F08053002B0DD1944BF1
:102BA000DB69934A43F08053D361914BDB6903F0B7
:102BB0008053BB60BB680123FB758E4B1B6803F41D
:102BC0008073002B18D18B4B1B688A4A43F48073A7
:102BD0001360FFF7B9FB386108E0FFF7B5FB024669
:102BE0003B69D31A642B01D90323FDE0814B1B6899
:102BF00003F48073002BF0D07B68DB68012B06D1D7
:102C00007B4B1B6A7A4A43F0010313622DE07B6819
:102C1000DB68002B0CD1764B1B6A754A23F001034D
:102C20001362734B1B6A724A23F0040313621CE0A5
:102C30007B68DB68052B0CD16D4B1B6A6C4A43F03B
:102C4000040313626A4B1B6A694A43F0010313626F
:102C50000BE0674B1B6A664A23F001031362644B67
:102C60001B6A634A23F0040313627B68DB68002B52
:102C700015D0FFF769FB38610AE0FFF765FB0246F4
:102C80003B69D31A41F28832934201D90323ABE066
:102C9000574B1B6A03F00203002BEED014E0FFF742
:102CA00053FB38610AE0FFF74FFB02463B69D31A3A
:102CB00041F28832934201D9032395E04C4B1B6AC1
:102CC00003F00203002BEED1FB7D012B05D1484B15
:102CD000DB69474A23F08053D3617B68DB69002BB3
:102CE00000F08180424B5B6803F00C03082B61D03D
:102CF0007B68DB69022B46D13F4B00221A60FFF74D
:102D000023FB386108E0FFF71FFB02463B69D31A3B
:102D1000022B01D9032367E0354B1B6803F00073D6
:102D2000002BF0D17B681B6AB3F5803F08D1304B94
:102D30005B6823F400327B689B682D4913434B602A
:102D40002B4B5B6823F474127B68196A7B685B6A9F
:102D50000B43274913434B60274B01221A60FFF7AF
:102D6000F3FA386108E0FFF7EFFA02463B69D31A3D
:102D7000022B01D9032337E01D4B1B6803F00073BE
:102D8000002BF0D02FE01C4B00221A60FFF7DCFA7A
:102D9000386108E0FFF7D8FA02463B69D31A022BE4
:102DA00001D9032320E0124B1B6803F00073002BB2
:102DB000F0D118E07B68DB69012B01D1012313E01E
:102DC0000B4B5B68FB60FB6803F480327B681B6A1B
:102DD0009A4206D1FB6803F470127B685B6A9A42E0
:102DE00001D0012300E0002318461837BD4680BDFE
:102DF00000100240007000406000424280B584B084
:102E000000AF786039607B68002B01D10123D0E0EE
:102E10006A4B1B6803F007033A689A4210D9674B64
:102E20001B6823F0070265493B6813430B60634B43
:102E30001B6803F007033A689A4201D00123B8E007
:102E40007B681B6803F00203002B20D07B681B68A3
:102E500003F00403002B05D0594B5B68584A43F438
:102E6000E06353607B681B6803F00803002B05D008
:102E7000534B5B68524A43F460535360504B5B685A
:102E800023F0F0027B689B684D4913434B607B68DD
:102E90001B6803F00103002B40D07B685B68012BAB
:102EA00007D1474B1B6803F40033002B15D10123D6
:102EB0007FE07B685B68022B07D1414B1B6803F006
:102EC0000073002B09D1012373E03D4B1B6803F015
:102ED0000203002B01D101236BE0394B5B6823F027
:102EE00003027B685B68364913434B60FFF72CFA9B
:102EF000F8600AE0FFF728FA0246FB68D31A41F2AD
:102F00008832934201D9032353E02D4B5B6803F0D1
:102F10000C027B685B689B009A42EBD1274B1B68D5
:102F200003F007033A689A4210D2244B1B6823F03F
:102F3000070222493B6813430B60204B1B6803F0D8
:102F400007033A689A4201D0012332E07B681B688C
:102F500003F00403002B08D0194B5B6823F4E062F4
:102F60007B68DB68164913434B607B681B6803F082
:102F70000803002B09D0124B5B6823F460527B6876
:102F80001B69DB000E4913434B6000F021F8024639
:102F90000B4B5B681B0903F00F030A49CB5C22FA59
:102FA00003F3094A1360094B1B681846FFF78AF9B7
:102FB000002318461037BD4680BD00BF00200240E8
:102FC00000100240F43800082800002030000020E3
:102FD00080B487B000AF0023FB600023BB600023F8
:102FE0007B6100237B6000233B611E4B5B68FB60C1
:102FF000FB6803F00C03042B02D0082B03D027E05E
:10300000194B3B6127E0FB689B0C03F00F03174A49
:10301000D35C7B60FB6803F48033002B10D0114B32
:103020005B685B0C03F00103114AD35CBB607B68F7
:103030000D4A02FB03F2BB68B2FBF3F37B6104E0D1
:103040007B680C4A02FB03F37B617B693B6102E016
:10305000054B3B6100BF3B6918461C37BD4680BC31
:10306000704700BF0010024000127A0004390008C7
:103070001439000800093D0080B485B000AF7860C5
:103080000A4B1B680A4AA2FB03235B0A7A6802FB0D
:1030900003F3FB6000BFFB685A1EFA60002BF9D1F6
:1030A00000BF00BF1437BD4680BC70472800002019
:1030B000D34D621080B582B000AF78607B68002B82
:1030C00001D1012341E07B6893F83D30DBB2002B56
:1030D00006D17B68002283F83C207868FEF79CFBD1
:1030E0007B68022283F83D207B681A687B68043382
:1030F0001946104600F06EFA7B68012283F84620DC
:103100007B68012283F83E207B68012283F83F2000
:103110007B68012283F840207B68012283F84120EC
:103120007B68012283F842207B68012283F84320D8
:103130007B68012283F844207B68012283F84520C4
:103140007B68012283F83D20002318460837BD46DE
:1031500080BD000080B485B000AF78607B6893F8D4
:103160003D30DBB2012B01D0012335E07B68022228
:1031700083F83D207B681B68DA687B681B6842F037
:103180000102DA607B681B68164A934209D07B68AB
:103190001B68B3F1804F04D07B681B68124A9342CE
:1031A00011D17B681B689B6803F00703FB60FB6819
:1031B000062B10D07B681B681A687B681B6842F07E
:1031C00001021A6007E07B681B681A687B681B684D
:1031D00042F001021A60002318461437BD4680BC35
:1031E000704700BF002C01400004004080B582B051
:1031F00000AF78607B681B681B6903F00203022B39
:1032000022D17B681B68DB6803F00203022B1BD111
:103210007B681B686FF002021A617B6801221A77D3
:103220007B681B689B6903F00303002B03D078685D
:1032300000F0B4F905E0786800F0A7F9786800F0CC
:10324000B6F97B6800221A777B681B681B6903F05C
:103250000403042B22D17B681B68DB6803F00403A2
:10326000042B1BD17B681B686FF004021A617B681A
:1032700002221A777B681B689B6903F44073002B5A
:1032800003D0786800F08AF905E0786800F07DF9ED
:10329000786800F08CF97B6800221A777B681B68DD
:1032A0001B6903F00803082B22D17B681B68DB68CD
:1032B00003F00803082B1BD17B681B686FF0080222
:1032C0001A617B6804221A777B681B68DB6903F04C
:1032D0000303002B03D0786800F060F905E07868FC
:1032E00000F053F9786800F062F97B6800221A77E1
:1032F0007B681B681B6903F01003102B22D17B68CD
:103300001B68DB6803F01003102B1BD17B681B6864
:103310006FF010021A617B6808221A777B681B68BD
:10332000DB6903F44073002B03D0786800F036F9B2
:1033300005E0786800F029F9786800F038F97B68D2
:1033400000221A777B681B681B6903F00103012BBD
:103350000ED17B681B68DB6803F00103012B07D1EA
:103360007B681B686FF001021A617868FDF7B6FF91
:103370007B681B681B6903F08003802B0ED17B6880
:103380001B68DB6803F08003802B07D17B681B6818
:103390006FF080021A61786800F06BFA7B681B6836
:1033A0001B6903F04003402B0ED17B681B68DB6870
:1033B00003F04003402B07D17B681B686FF040028D
:1033C0001A61786800F0FCF87B681B681B6903F0E1
:1033D0002003202B0ED17B681B68DB6803F02003E1
:1033E000202B07D17B681B686FF020021A61786878
:1033F00000F036FA00BF0837BD4680BD80B584B006
:1034000000AF786039600023FB737B6893F83C3031
:10341000012B01D10223B4E07B68012283F83C2018
:103420007B68022283F83D207B681B689B68BB6039
:10343000BB6823F07703BB60BB6823F47F43BB60AA
:103440007B681B68BA689A603B681B68B3F5005FCD
:103450003ED0B3F5005F00F28780B3F5805F00F0E7
:103460008680B3F5805F7FD8702B1AD0702B7BD805
:10347000602B50D0602B77D8502B3CD0502B73D87A
:10348000402B58D0402B6FD8302B64D0302B6BD8CA
:10349000202B60D0202B67D8002B5CD0102B5AD06B
:1034A00062E07B6818683B6899683B685A683B68CB
:1034B000DB6800F05EF97B681B689B68BB60BB68DB
:1034C00043F07703BB607B681B68BA689A604FE083
:1034D0007B6818683B6899683B685A683B68DB689A
:1034E00000F047F97B681B689A687B681B6842F4A8
:1034F00080429A603CE07B6818683B6859683B688A
:10350000DB681A4600F0BEF87B681B68502118463D
:1035100000F015F92CE07B6818683B6859683B6837
:10352000DB681A4600F0DCF87B681B6860211846EF
:1035300000F005F91CE07B6818683B6859683B6837
:10354000DB681A4600F09EF87B681B68402118462D
:1035500000F0F5F80CE07B681A683B681B681946B8
:10356000104600F0ECF803E00123FB7300E000BF1D
:103570007B68012283F83D207B68002283F83C2091
:10358000FB7B18461037BD4680BD80B483B000AFCA
:10359000786000BF0C37BD4680BC704780B483B0F4
:1035A00000AF786000BF0C37BD4680BC704780B468
:1035B00083B000AF786000BF0C37BD4680BC704759
:1035C00080B483B000AF786000BF0C37BD4680BCCC
:1035D0007047000080B485B000AF786039607B68C8
:1035E0001B68FB607B68254A934207D07B68B3F178
:1035F000804F03D07B68224A934208D1FB6823F0B6
:103600007003FB603B685B68FA681343FB607B6890
:103610001A4A934207D07B68B3F1804F03D07B688E
:10362000174A934208D1FB6823F44073FB603B6860
:10363000DB68FA681343FB60FB6823F080023B6899
:103640005B691343FB607B68FA681A603B689A68A1
:103650007B68DA623B681A687B689A627B68074A13
:10366000934203D13B681A697B681A637B68012225
:103670005A6100BF1437BD4680BC7047002C014022
:103680000004004080B487B000AFF860B9607A6091
:10369000FB681B6A7B61FB681B6A23F00102FB6805
:1036A0001A62FB689B693B613B6923F0F0033B6155
:1036B0007B681B013A6913433B617B6923F00A0372
:1036C0007B617A69BB6813437B61FB683A699A61E5
:1036D000FB687A691A6200BF1C37BD4680BC704720
:1036E00080B487B000AFF860B9607A60FB681B6A8D
:1036F0007B61FB681B6A23F01002FB681A62FB689F
:103700009B693B613B6923F470433B617B681B030E
:103710003A6913433B617B6923F0A0037B61BB687B
:103720001B017A6913437B61FB683A699A61FB6804
:103730007A691A6200BF1C37BD4680BC704780B4EE
:1037400085B000AF786039607B689B68FB60FB6880
:1037500023F07003FB603A68FB68134343F00703F0
:10376000FB607B68FA689A6000BF1437BD4680BC76
:10377000704780B487B000AFF860B9607A603B6092
:10378000FB689B687B617B6923F47F437B613B68BB
:103790001A027B681A43BB6813437A6913437B613F
:1037A000FB687A699A6000BF1C37BD4680BC7047D1
:1037B00080B485B000AF786039607B6893F83C30A6
:1037C000012B01D1022341E07B68012283F83C20D8
:1037D0007B68022283F83D207B681B685B68FB6086
:1037E0007B681B689B68BB60FB6823F07003FB6011
:1037F0003B681B68FA681343FB607B681B68FA68C8
:103800005A607B681B68144A934209D07B681B6826
:10381000B3F1804F04D07B681B68104A93420CD1EF
:10382000BB6823F08003BB603B685B68BA681343E6
:10383000BB607B681B68BA689A607B68012283F86A
:103840003D207B68002283F83C2000231846143773
:10385000BD4680BC704700BF002C01400004004002
:1038600080B483B000AF786000BF0C37BD4680BC29
:10387000704780B483B000AF786000BF0C37BD469E
:1038800080BC704770B500260C4D0D4C641BA41015
:10389000A64209D100F022F800260A4D0A4C641B0A
:1038A000A410A64205D170BD55F8043B98470136D7
:1038B000EEE755F8043B98470136F2E7183900085F
:1038C00018390008183900081C390008034602445A
:1038D000934200D1704703F8011BF9E7F8B500BF28
:1038E000F8BC08BC9E467047F8B500BFF8BC08BCE1
:0438F0009E46704739
:1038F400000000000000000001020304060708099C
:1039040002030405060708090A0B0C0D0E0F10101C
:0439140001020000AC
:04391800350100086D
:04391C00110100088D
:10392000010000000100000001000000050000008F
:103930000200000003000000010000000000000081
:10394000000000000000F03F0024F400010000002F
:0839500010000000010000005E
:040000050800224D80
:00000001FF
